{
  "contractName": "IdProject",
  "abi": [
    {
      "inputs": [],
      "name": "blockCount",
      "outputs": [
        {
          "internalType": "uint256",
          "name": "",
          "type": "uint256"
        }
      ],
      "stateMutability": "view",
      "type": "function",
      "constant": true
    },
    {
      "inputs": [],
      "name": "userCnt",
      "outputs": [
        {
          "internalType": "uint256",
          "name": "",
          "type": "uint256"
        }
      ],
      "stateMutability": "view",
      "type": "function",
      "constant": true
    },
    {
      "inputs": [
        {
          "internalType": "address",
          "name": "a",
          "type": "address"
        }
      ],
      "name": "add",
      "outputs": [],
      "stateMutability": "nonpayable",
      "type": "function"
    },
    {
      "inputs": [],
      "name": "getUser",
      "outputs": [
        {
          "internalType": "address[]",
          "name": "",
          "type": "address[]"
        }
      ],
      "stateMutability": "view",
      "type": "function",
      "constant": true
    },
    {
      "inputs": [
        {
          "internalType": "string",
          "name": "_nickname",
          "type": "string"
        },
        {
          "internalType": "string",
          "name": "_gameName",
          "type": "string"
        },
        {
          "internalType": "string",
          "name": "_serverName",
          "type": "string"
        },
        {
          "internalType": "string",
          "name": "_className",
          "type": "string"
        },
        {
          "internalType": "string",
          "name": "_remarks",
          "type": "string"
        }
      ],
      "name": "insertInfo",
      "outputs": [],
      "stateMutability": "nonpayable",
      "type": "function"
    },
    {
      "inputs": [
        {
          "internalType": "address",
          "name": "_address",
          "type": "address"
        }
      ],
      "name": "getIndexOf",
      "outputs": [
        {
          "internalType": "uint256[]",
          "name": "",
          "type": "uint256[]"
        }
      ],
      "stateMutability": "view",
      "type": "function",
      "constant": true
    },
    {
      "inputs": [
        {
          "internalType": "address",
          "name": "_address",
          "type": "address"
        },
        {
          "internalType": "uint256",
          "name": "_blockId",
          "type": "uint256"
        }
      ],
      "name": "getInfo",
      "outputs": [
        {
          "internalType": "string",
          "name": "",
          "type": "string"
        },
        {
          "internalType": "string",
          "name": "",
          "type": "string"
        },
        {
          "internalType": "string",
          "name": "",
          "type": "string"
        },
        {
          "internalType": "string",
          "name": "",
          "type": "string"
        },
        {
          "internalType": "string",
          "name": "",
          "type": "string"
        },
        {
          "internalType": "uint256",
          "name": "",
          "type": "uint256"
        }
      ],
      "stateMutability": "view",
      "type": "function",
      "constant": true
    },
    {
      "inputs": [
        {
          "internalType": "string",
          "name": "_search",
          "type": "string"
        }
      ],
      "name": "linearSearch",
      "outputs": [
        {
          "internalType": "string[]",
          "name": "",
          "type": "string[]"
        },
        {
          "internalType": "address[]",
          "name": "",
          "type": "address[]"
        }
      ],
      "stateMutability": "view",
      "type": "function",
      "constant": true
    },
    {
      "inputs": [],
      "name": "getTotalUserCount",
      "outputs": [
        {
          "internalType": "uint256",
          "name": "",
          "type": "uint256"
        }
      ],
      "stateMutability": "view",
      "type": "function",
      "constant": true
    },
    {
      "inputs": [],
      "name": "getTotalBlockCount",
      "outputs": [
        {
          "internalType": "uint256",
          "name": "",
          "type": "uint256"
        }
      ],
      "stateMutability": "view",
      "type": "function",
      "constant": true
    },
    {
      "inputs": [],
      "name": "getRecentUser",
      "outputs": [
        {
          "internalType": "string[]",
          "name": "",
          "type": "string[]"
        },
        {
          "internalType": "address[]",
          "name": "",
          "type": "address[]"
        }
      ],
      "stateMutability": "view",
      "type": "function",
      "constant": true
    }
  ],
  "bytecode": "0x608060405234801561001057600080fd5b5061274e806100206000396000f3fe608060405234801561001057600080fd5b50600436106100a95760003560e01c806325bc155b1161007157806325bc155b1461015557806360407c8d14610171578063655f478b1461018f5780636a91e7bc146101c0578063832880e7146101f5578063d38aac9214610213576100a9565b8063017df522146100ae57806307225b4d146100de5780630a3b0a4f146100fc5780630fab82be1461011857806310691ad014610136575b600080fd5b6100c860048036038101906100c391906119f9565b610231565b6040516100d59190611aee565b60405180910390f35b6100e66102ca565b6040516100f39190611b1f565b60405180910390f35b610116600480360381019061011191906119f9565b6102d0565b005b610120610401565b60405161012d9190611b1f565b60405180910390f35b61013e61040b565b60405161014c929190611d4a565b60405180910390f35b61016f600480360381019061016a9190611eb6565b610a4d565b005b610179610dee565b6040516101869190611b1f565b60405180910390f35b6101a960048036038101906101a49190611fbd565b610df4565b6040516101b7929190611d4a565b60405180910390f35b6101da60048036038101906101d59190612032565b61137c565b6040516101ec969594939291906120bc565b60405180910390f35b6101fd611845565b60405161020a9190612140565b60405180910390f35b61021b61194d565b6040516102289190611b1f565b60405180910390f35b60606000808373ffffffffffffffffffffffffffffffffffffffff1673ffffffffffffffffffffffffffffffffffffffff1681526020019081526020016000206000018054806020026020016040519081016040528092919081815260200182805480156102be57602002820191906000526020600020905b8154815260200190600101908083116102aa575b50505050509050919050565b60015481565b600360010160008273ffffffffffffffffffffffffffffffffffffffff1673ffffffffffffffffffffffffffffffffffffffff16815260200190815260200160002060009054906101000a900460ff166103fe576003600001819080600181540180825580915050600190039060005260206000200160009091909190916101000a81548173ffffffffffffffffffffffffffffffffffffffff021916908373ffffffffffffffffffffffffffffffffffffffff1602179055506001600360010160008373ffffffffffffffffffffffffffffffffffffffff1673ffffffffffffffffffffffffffffffffffffffff16815260200190815260200160002060006101000a81548160ff021916908315150217905550600260008154809291906103f890612191565b91905055505b50565b6000600154905090565b6060806000600a9050600061041e611845565b905060008151905060008167ffffffffffffffff81111561044257610441611d8b565b5b60405190808252806020026020018201604052801561047b57816020015b610468611957565b8152602001906001900390816104605790505b50905060005b828110156105e75760006104ae8583815181106104a1576104a06121d9565b5b6020026020010151610231565b90506000805b825181101561056e5760008382815181106104d2576104d16121d9565b5b6020026020010151905060008060008a88815181106104f4576104f36121d9565b5b602002602001015173ffffffffffffffffffffffffffffffffffffffff1673ffffffffffffffffffffffffffffffffffffffff168152602001908152602001600020600601600083815260200190815260200160002054905083811115610559578093505b5050808061056690612191565b9150506104b4565b50604051806040016040528087858151811061058d5761058c6121d9565b5b602002602001015173ffffffffffffffffffffffffffffffffffffffff168152602001828152508484815181106105c7576105c66121d9565b5b6020026020010181905250505080806105df90612191565b915050610481565b5060005b828110156106f15760006001826106029190612208565b90505b838110156106dd578281815181106106205761061f6121d9565b5b60200260200101516020015183838151811061063f5761063e6121d9565b5b60200260200101516020015110156106ca576000838381518110610666576106656121d9565b5b60200260200101519050838281518110610683576106826121d9565b5b602002602001015184848151811061069e5761069d6121d9565b5b6020026020010181905250808483815181106106bd576106bc6121d9565b5b6020026020010181905250505b80806106d590612191565b915050610605565b5080806106e990612191565b9150506105eb565b5060008483106107015784610703565b825b905060008167ffffffffffffffff81111561072157610720611d8b565b5b60405190808252806020026020018201604052801561075457816020015b606081526020019060019003908161073f5790505b50905060008267ffffffffffffffff81111561077357610772611d8b565b5b6040519080825280602002602001820160405280156107a15781602001602082028036833780820191505090505b50905060005b83811015610a3b5760008060006107db8885815181106107ca576107c96121d9565b5b602002602001015160000151610231565b905060005b81518110156108a15760008282815181106107fe576107fd6121d9565b5b6020026020010151905060008060008c89815181106108205761081f6121d9565b5b60200260200101516000015173ffffffffffffffffffffffffffffffffffffffff1673ffffffffffffffffffffffffffffffffffffffff16815260200190815260200160002060060160008381526020019081526020016000205490508481111561088c578094508195505b5050808061089990612191565b9150506107e0565b506000808986815181106108b8576108b76121d9565b5b60200260200101516000015173ffffffffffffffffffffffffffffffffffffffff1673ffffffffffffffffffffffffffffffffffffffff1681526020019081526020016000206001016000848152602001908152602001600020805461091d9061226b565b80601f01602080910402602001604051908101604052809291908181526020018280546109499061226b565b80156109965780601f1061096b57610100808354040283529160200191610996565b820191906000526020600020905b81548152906001019060200180831161097957829003601f168201915b50505050508685815181106109ae576109ad6121d9565b5b60200260200101819052508784815181106109cc576109cb6121d9565b5b6020026020010151600001518585815181106109eb576109ea6121d9565b5b602002602001019073ffffffffffffffffffffffffffffffffffffffff16908173ffffffffffffffffffffffffffffffffffffffff16815250505050508080610a3390612191565b9150506107a7565b50818198509850505050505050509091565b6000845111610a91576040517f08c379a0000000000000000000000000000000000000000000000000000000008152600401610a88906122e8565b60405180910390fd5b6000835111610ad5576040517f08c379a0000000000000000000000000000000000000000000000000000000008152600401610acc90612354565b60405180910390fd5b6000825111610b19576040517f08c379a0000000000000000000000000000000000000000000000000000000008152600401610b10906123c0565b60405180910390fd5b60016000815480929190610b2c90612191565b9190505550610b3a336102d0565b6000803373ffffffffffffffffffffffffffffffffffffffff1673ffffffffffffffffffffffffffffffffffffffff1681526020019081526020016000206000016001549080600181540180825580915050600190039060005260206000200160009091909190915055846000803373ffffffffffffffffffffffffffffffffffffffff1673ffffffffffffffffffffffffffffffffffffffff168152602001908152602001600020600101600060015481526020019081526020016000209081610c05919061258c565b50836000803373ffffffffffffffffffffffffffffffffffffffff1673ffffffffffffffffffffffffffffffffffffffff168152602001908152602001600020600201600060015481526020019081526020016000209081610c67919061258c565b50826000803373ffffffffffffffffffffffffffffffffffffffff1673ffffffffffffffffffffffffffffffffffffffff168152602001908152602001600020600301600060015481526020019081526020016000209081610cc9919061258c565b50816000803373ffffffffffffffffffffffffffffffffffffffff1673ffffffffffffffffffffffffffffffffffffffff168152602001908152602001600020600401600060015481526020019081526020016000209081610d2b919061258c565b50806000803373ffffffffffffffffffffffffffffffffffffffff1673ffffffffffffffffffffffffffffffffffffffff168152602001908152602001600020600501600060015481526020019081526020016000209081610d8d919061258c565b50426000803373ffffffffffffffffffffffffffffffffffffffff1673ffffffffffffffffffffffffffffffffffffffff16815260200190815260200160002060060160006001548152602001908152602001600020819055505050505050565b60025481565b6060806000610e01611845565b9050600060025467ffffffffffffffff811115610e2157610e20611d8b565b5b604051908082528060200260200182016040528015610e5457816020015b6060815260200190600190039081610e3f5790505b509050600060025467ffffffffffffffff811115610e7557610e74611d8b565b5b604051908082528060200260200182016040528015610ea35781602001602082028036833780820191505090505b5090506000805b60025481101561120b576000610ed9868381518110610ecc57610ecb6121d9565b5b6020026020010151610231565b905060005b81518110156111f6578980519060200120600080898681518110610f0557610f046121d9565b5b602002602001015173ffffffffffffffffffffffffffffffffffffffff1673ffffffffffffffffffffffffffffffffffffffff1681526020019081526020016000206002016000848481518110610f5f57610f5e6121d9565b5b60200260200101518152602001908152602001600020604051610f829190612701565b6040518091039020148061103657508980519060200120600080898681518110610faf57610fae6121d9565b5b602002602001015173ffffffffffffffffffffffffffffffffffffffff1673ffffffffffffffffffffffffffffffffffffffff1681526020019081526020016000206003016000848481518110611009576110086121d9565b5b6020026020010151815260200190815260200160002060405161102c9190612701565b6040518091039020145b156111e357600080888581518110611051576110506121d9565b5b602002602001015173ffffffffffffffffffffffffffffffffffffffff1673ffffffffffffffffffffffffffffffffffffffff16815260200190815260200160002060010160008383815181106110ab576110aa6121d9565b5b6020026020010151815260200190815260200160002080546110cc9061226b565b80601f01602080910402602001604051908101604052809291908181526020018280546110f89061226b565b80156111455780601f1061111a57610100808354040283529160200191611145565b820191906000526020600020905b81548152906001019060200180831161112857829003601f168201915b505050505086858151811061115d5761115c6121d9565b5b602002602001018190525086838151811061117b5761117a6121d9565b5b6020026020010151858581518110611196576111956121d9565b5b602002602001019073ffffffffffffffffffffffffffffffffffffffff16908173ffffffffffffffffffffffffffffffffffffffff168152505083806111db90612191565b9450506111f6565b80806111ee90612191565b915050610ede565b5050808061120390612191565b915050610eaa565b5060008167ffffffffffffffff81111561122857611227611d8b565b5b60405190808252806020026020018201604052801561125b57816020015b60608152602001906001900390816112465790505b50905060008267ffffffffffffffff81111561127a57611279611d8b565b5b6040519080825280602002602001820160405280156112a85781602001602082028036833780820191505090505b50905060005b8381101561136a578581815181106112c9576112c86121d9565b5b60200260200101518382815181106112e4576112e36121d9565b5b6020026020010181905250848181518110611302576113016121d9565b5b602002602001015182828151811061131d5761131c6121d9565b5b602002602001019073ffffffffffffffffffffffffffffffffffffffff16908173ffffffffffffffffffffffffffffffffffffffff1681525050808061136290612191565b9150506112ae565b50818197509750505050505050915091565b606080606080606060008060008973ffffffffffffffffffffffffffffffffffffffff1673ffffffffffffffffffffffffffffffffffffffff16815260200190815260200160002060010160008881526020019081526020016000206000808a73ffffffffffffffffffffffffffffffffffffffff1673ffffffffffffffffffffffffffffffffffffffff16815260200190815260200160002060020160008981526020019081526020016000206000808b73ffffffffffffffffffffffffffffffffffffffff1673ffffffffffffffffffffffffffffffffffffffff16815260200190815260200160002060030160008a81526020019081526020016000206000808c73ffffffffffffffffffffffffffffffffffffffff1673ffffffffffffffffffffffffffffffffffffffff16815260200190815260200160002060040160008b81526020019081526020016000206000808d73ffffffffffffffffffffffffffffffffffffffff1673ffffffffffffffffffffffffffffffffffffffff16815260200190815260200160002060050160008c81526020019081526020016000206000808e73ffffffffffffffffffffffffffffffffffffffff1673ffffffffffffffffffffffffffffffffffffffff16815260200190815260200160002060060160008d81526020019081526020016000205485805461157f9061226b565b80601f01602080910402602001604051908101604052809291908181526020018280546115ab9061226b565b80156115f85780601f106115cd576101008083540402835291602001916115f8565b820191906000526020600020905b8154815290600101906020018083116115db57829003601f168201915b5050505050955084805461160b9061226b565b80601f01602080910402602001604051908101604052809291908181526020018280546116379061226b565b80156116845780601f1061165957610100808354040283529160200191611684565b820191906000526020600020905b81548152906001019060200180831161166757829003601f168201915b505050505094508380546116979061226b565b80601f01602080910402602001604051908101604052809291908181526020018280546116c39061226b565b80156117105780601f106116e557610100808354040283529160200191611710565b820191906000526020600020905b8154815290600101906020018083116116f357829003601f168201915b505050505093508280546117239061226b565b80601f016020809104026020016040519081016040528092919081815260200182805461174f9061226b565b801561179c5780601f106117715761010080835404028352916020019161179c565b820191906000526020600020905b81548152906001019060200180831161177f57829003601f168201915b505050505092508180546117af9061226b565b80601f01602080910402602001604051908101604052809291908181526020018280546117db9061226b565b80156118285780601f106117fd57610100808354040283529160200191611828565b820191906000526020600020905b81548152906001019060200180831161180b57829003601f168201915b505050505091509550955095509550955095509295509295509295565b6060600060025467ffffffffffffffff81111561186557611864611d8b565b5b6040519080825280602002602001820160405280156118935781602001602082028036833780820191505090505b50905060005b60025481101561194557600360000181815481106118ba576118b96121d9565b5b9060005260206000200160009054906101000a900473ffffffffffffffffffffffffffffffffffffffff168282815181106118f8576118f76121d9565b5b602002602001019073ffffffffffffffffffffffffffffffffffffffff16908173ffffffffffffffffffffffffffffffffffffffff1681525050808061193d90612191565b915050611899565b508091505090565b6000600254905090565b6040518060400160405280600073ffffffffffffffffffffffffffffffffffffffff168152602001600081525090565b6000604051905090565b600080fd5b600080fd5b600073ffffffffffffffffffffffffffffffffffffffff82169050919050565b60006119c68261199b565b9050919050565b6119d6816119bb565b81146119e157600080fd5b50565b6000813590506119f3816119cd565b92915050565b600060208284031215611a0f57611a0e611991565b5b6000611a1d848285016119e4565b91505092915050565b600081519050919050565b600082825260208201905092915050565b6000819050602082019050919050565b6000819050919050565b611a6581611a52565b82525050565b6000611a778383611a5c565b60208301905092915050565b6000602082019050919050565b6000611a9b82611a26565b611aa58185611a31565b9350611ab083611a42565b8060005b83811015611ae1578151611ac88882611a6b565b9750611ad383611a83565b925050600181019050611ab4565b5085935050505092915050565b60006020820190508181036000830152611b088184611a90565b905092915050565b611b1981611a52565b82525050565b6000602082019050611b346000830184611b10565b92915050565b600081519050919050565b600082825260208201905092915050565b6000819050602082019050919050565b600081519050919050565b600082825260208201905092915050565b60005b83811015611ba0578082015181840152602081019050611b85565b60008484015250505050565b6000601f19601f8301169050919050565b6000611bc882611b66565b611bd28185611b71565b9350611be2818560208601611b82565b611beb81611bac565b840191505092915050565b6000611c028383611bbd565b905092915050565b6000602082019050919050565b6000611c2282611b3a565b611c2c8185611b45565b935083602082028501611c3e85611b56565b8060005b85811015611c7a5784840389528151611c5b8582611bf6565b9450611c6683611c0a565b925060208a01995050600181019050611c42565b50829750879550505050505092915050565b600081519050919050565b600082825260208201905092915050565b6000819050602082019050919050565b611cc1816119bb565b82525050565b6000611cd38383611cb8565b60208301905092915050565b6000602082019050919050565b6000611cf782611c8c565b611d018185611c97565b9350611d0c83611ca8565b8060005b83811015611d3d578151611d248882611cc7565b9750611d2f83611cdf565b925050600181019050611d10565b5085935050505092915050565b60006040820190508181036000830152611d648185611c17565b90508181036020830152611d788184611cec565b90509392505050565b600080fd5b600080fd5b7f4e487b7100000000000000000000000000000000000000000000000000000000600052604160045260246000fd5b611dc382611bac565b810181811067ffffffffffffffff82111715611de257611de1611d8b565b5b80604052505050565b6000611df5611987565b9050611e018282611dba565b919050565b600067ffffffffffffffff821115611e2157611e20611d8b565b5b611e2a82611bac565b9050602081019050919050565b82818337600083830152505050565b6000611e59611e5484611e06565b611deb565b905082815260208101848484011115611e7557611e74611d86565b5b611e80848285611e37565b509392505050565b600082601f830112611e9d57611e9c611d81565b5b8135611ead848260208601611e46565b91505092915050565b600080600080600060a08688031215611ed257611ed1611991565b5b600086013567ffffffffffffffff811115611ef057611eef611996565b5b611efc88828901611e88565b955050602086013567ffffffffffffffff811115611f1d57611f1c611996565b5b611f2988828901611e88565b945050604086013567ffffffffffffffff811115611f4a57611f49611996565b5b611f5688828901611e88565b935050606086013567ffffffffffffffff811115611f7757611f76611996565b5b611f8388828901611e88565b925050608086013567ffffffffffffffff811115611fa457611fa3611996565b5b611fb088828901611e88565b9150509295509295909350565b600060208284031215611fd357611fd2611991565b5b600082013567ffffffffffffffff811115611ff157611ff0611996565b5b611ffd84828501611e88565b91505092915050565b61200f81611a52565b811461201a57600080fd5b50565b60008135905061202c81612006565b92915050565b6000806040838503121561204957612048611991565b5b6000612057858286016119e4565b92505060206120688582860161201d565b9150509250929050565b600082825260208201905092915050565b600061208e82611b66565b6120988185612072565b93506120a8818560208601611b82565b6120b181611bac565b840191505092915050565b600060c08201905081810360008301526120d68189612083565b905081810360208301526120ea8188612083565b905081810360408301526120fe8187612083565b905081810360608301526121128186612083565b905081810360808301526121268185612083565b905061213560a0830184611b10565b979650505050505050565b6000602082019050818103600083015261215a8184611cec565b905092915050565b7f4e487b7100000000000000000000000000000000000000000000000000000000600052601160045260246000fd5b600061219c82611a52565b91507fffffffffffffffffffffffffffffffffffffffffffffffffffffffffffffffff82036121ce576121cd612162565b5b600182019050919050565b7f4e487b7100000000000000000000000000000000000000000000000000000000600052603260045260246000fd5b600061221382611a52565b915061221e83611a52565b925082820190508082111561223657612235612162565b5b92915050565b7f4e487b7100000000000000000000000000000000000000000000000000000000600052602260045260246000fd5b6000600282049050600182168061228357607f821691505b6020821081036122965761229561223c565b5b50919050565b7f47616d65204e616d652069732072657175697265640000000000000000000000600082015250565b60006122d2601583612072565b91506122dd8261229c565b602082019050919050565b60006020820190508181036000830152612301816122c5565b9050919050565b7f536572766572204e616d65206973207265717569726564000000000000000000600082015250565b600061233e601783612072565b915061234982612308565b602082019050919050565b6000602082019050818103600083015261236d81612331565b9050919050565b7f436c617373204e616d6520697320726571756972656400000000000000000000600082015250565b60006123aa601683612072565b91506123b582612374565b602082019050919050565b600060208201905081810360008301526123d98161239d565b9050919050565b60008190508160005260206000209050919050565b60006020601f8301049050919050565b600082821b905092915050565b6000600883026124427fffffffffffffffffffffffffffffffffffffffffffffffffffffffffffffffff82612405565b61244c8683612405565b95508019841693508086168417925050509392505050565b6000819050919050565b600061248961248461247f84611a52565b612464565b611a52565b9050919050565b6000819050919050565b6124a38361246e565b6124b76124af82612490565b848454612412565b825550505050565b600090565b6124cc6124bf565b6124d781848461249a565b505050565b5b818110156124fb576124f06000826124c4565b6001810190506124dd565b5050565b601f82111561254057612511816123e0565b61251a846123f5565b81016020851015612529578190505b61253d612535856123f5565b8301826124dc565b50505b505050565b600082821c905092915050565b600061256360001984600802612545565b1980831691505092915050565b600061257c8383612552565b9150826002028217905092915050565b61259582611b66565b67ffffffffffffffff8111156125ae576125ad611d8b565b5b6125b8825461226b565b6125c38282856124ff565b600060209050601f8311600181146125f657600084156125e4578287015190505b6125ee8582612570565b865550612656565b601f198416612604866123e0565b60005b8281101561262c57848901518255600182019150602085019450602081019050612607565b868310156126495784890151612645601f891682612552565b8355505b6001600288020188555050505b505050505050565b600081905092915050565b60008190508160005260206000209050919050565b6000815461268b8161226b565b612695818661265e565b945060018216600081146126b057600181146126c5576126f8565b60ff19831686528115158202860193506126f8565b6126ce85612669565b60005b838110156126f0578154818901526001820191506020810190506126d1565b838801955050505b50505092915050565b600061270d828461267e565b91508190509291505056fea264697066735822122067c8d84e8ff9d6d9a61f1be75de6bc2a84d5422e68a53c1b5eeebd2320fe5d9a64736f6c63430008130033",
  "immutableReferences": {},
  "source": "//SPDX-License-Identifier: MIT\r\npragma solidity ^0.8.19;\r\n\r\ncontract IdProject {\r\n    struct Game {\r\n        uint[] blockId;\r\n        mapping(uint256 => string) nickname;\r\n        mapping(uint256 => string) gameName;\r\n        mapping(uint256 => string) serverName;\r\n        mapping(uint256 => string) className;\r\n        mapping(uint256 => string) remarks;\r\n        mapping(uint256 => uint) date;\r\n    }\r\n\r\n    mapping(address => Game) games;\r\n\r\n    uint256 public blockCount;\r\n\r\n    struct Set {\r\n        address[] values;\r\n        mapping(address => bool) is_in;\r\n    }\r\n\r\n    uint public userCnt;\r\n    Set userSet;\r\n\r\n    function add(address a) public {\r\n        if (!userSet.is_in[a]) {\r\n            userSet.values.push(a);\r\n            userSet.is_in[a] = true;\r\n            userCnt++;\r\n        }\r\n    }\r\n\r\n    function getUser() public view returns (address[] memory) {\r\n        address[] memory userList = new address[](userCnt);\r\n        for (uint i = 0; i < userCnt; i++) {\r\n            userList[i] = userSet.values[i];\r\n        }\r\n        return userList;\r\n    }\r\n\r\n    // \r\n    function insertInfo(\r\n        string memory _nickname,\r\n        string memory _gameName,\r\n        string memory _serverName,\r\n        string memory _className,\r\n        string memory _remarks\r\n    ) public {\r\n        require(bytes(_gameName).length > 0, \"Game Name is required\");\r\n        require(bytes(_serverName).length > 0, \"Server Name is required\");\r\n        require(bytes(_className).length > 0, \"Class Name is required\");\r\n\r\n        blockCount++;\r\n        add(msg.sender);\r\n\r\n        games[msg.sender].blockId.push(blockCount);\r\n        games[msg.sender].nickname[blockCount] = _nickname;\r\n        games[msg.sender].gameName[blockCount] = _gameName;\r\n        games[msg.sender].serverName[blockCount] = _serverName;\r\n        games[msg.sender].className[blockCount] = _className;\r\n        games[msg.sender].remarks[blockCount] = _remarks;\r\n        games[msg.sender].date[blockCount] = block.timestamp;\r\n    }\r\n\r\n    //    () -->  \r\n    function getIndexOf(address _address) public view returns (uint[] memory) {\r\n        return games[_address].blockId;\r\n    }\r\n\r\n    //  \r\n    function getInfo(\r\n        address _address,\r\n        uint _blockId\r\n    )\r\n        public\r\n        view\r\n        returns (\r\n            string memory,\r\n            string memory,\r\n            string memory,\r\n            string memory,\r\n            string memory,\r\n            uint\r\n        )\r\n    {\r\n        return (\r\n            games[_address].nickname[_blockId],\r\n            games[_address].gameName[_blockId],\r\n            games[_address].serverName[_blockId],\r\n            games[_address].className[_blockId],\r\n            games[_address].remarks[_blockId],\r\n            games[_address].date[_blockId]\r\n        );\r\n    }\r\n\r\n    //  -->  .\r\n    function linearSearch(string memory _search) public view returns (string[] memory, address[] memory) {\r\n        address[] memory user = getUser();\r\n\r\n        //      \r\n        string[] memory tempUsers = new string[](userCnt);\r\n        address[] memory tempAddresses = new address[](userCnt);\r\n        uint cnt = 0;\r\n\r\n        for (uint i = 0; i < userCnt; i++) {\r\n            uint[] memory blocks = getIndexOf(user[i]);\r\n            for (uint j = 0; j < blocks.length; j++) {\r\n                if (\r\n                    keccak256(bytes(games[user[i]].gameName[blocks[j]])) ==\r\n                    keccak256(bytes(_search)) ||\r\n                    keccak256(bytes(games[user[i]].serverName[blocks[j]])) ==\r\n                    keccak256(bytes(_search))\r\n                ) {\r\n                    tempUsers[cnt] = games[user[i]].nickname[blocks[j]];\r\n                    tempAddresses[cnt] = user[i];\r\n                    cnt++;\r\n                    break; //      \r\n                }\r\n            }\r\n        }\r\n\r\n        //    \r\n        string[] memory users = new string[](cnt);\r\n        address[] memory addresses = new address[](cnt);\r\n\r\n        for (uint k = 0; k < cnt; k++) {\r\n            users[k] = tempUsers[k];\r\n            addresses[k] = tempAddresses[k];\r\n        }\r\n\r\n        return (users, addresses);\r\n    }\r\n\r\n    //  --> 1.    \r\n    function getTotalUserCount() public view returns (uint) {\r\n        return userCnt;\r\n    }\r\n\r\n    //  --> 2.    \r\n    function getTotalBlockCount() public view returns (uint) {\r\n        return blockCount;\r\n    } \r\n\r\n    //  --> 3.   10\r\n    // UserBlock  \r\n    struct UserBlock {\r\n        address user;\r\n        uint lastBlockTimestamp;\r\n    }\r\n\r\n    function getRecentUser() public view returns (string[] memory, address[] memory) {\r\n        uint maxCount = 10; //  10 \r\n        address[] memory allUsers = getUser();\r\n        uint totalUsers = allUsers.length;\r\n\r\n        //       \r\n        UserBlock[] memory userBlocks = new UserBlock[](totalUsers); // UserBlock   \r\n\r\n        for (uint i = 0; i < totalUsers; i++) {\r\n            uint[] memory blocks = getIndexOf(allUsers[i]);\r\n            uint latestBlockTimestamp = 0;\r\n\r\n            for (uint j = 0; j < blocks.length; j++) {\r\n                uint blockId = blocks[j];\r\n                uint timestamp = games[allUsers[i]].date[blockId];\r\n                if (timestamp > latestBlockTimestamp) {\r\n                    latestBlockTimestamp = timestamp;\r\n                }\r\n            }\r\n\r\n            userBlocks[i] = UserBlock(allUsers[i], latestBlockTimestamp);\r\n        }\r\n\r\n        //     (  )\r\n        for (uint i = 0; i < totalUsers; i++) {\r\n            for (uint j = i + 1; j < totalUsers; j++) {\r\n                if (userBlocks[i].lastBlockTimestamp < userBlocks[j].lastBlockTimestamp) {\r\n                    UserBlock memory temp = userBlocks[i];\r\n                    userBlocks[i] = userBlocks[j];\r\n                    userBlocks[j] = temp;\r\n                }\r\n            }\r\n        }\r\n\r\n        //  10  \r\n        uint resultCount = totalUsers < maxCount ? totalUsers : maxCount;\r\n        string[] memory recentNicknames = new string[](resultCount);\r\n        address[] memory recentAddresses = new address[](resultCount);\r\n\r\n        for (uint i = 0; i < resultCount; i++) {\r\n            //    ID \r\n            uint lastBlockId = 0;\r\n            uint latestTimestamp = 0;\r\n            \r\n            //  ID     \r\n            uint[] memory blocks = getIndexOf(userBlocks[i].user);\r\n            for (uint j = 0; j < blocks.length; j++) {\r\n                uint blockId = blocks[j];\r\n                uint timestamp = games[userBlocks[i].user].date[blockId];\r\n                if (timestamp > latestTimestamp) {\r\n                    latestTimestamp = timestamp;\r\n                    lastBlockId = blockId; //   ID \r\n                }\r\n            }\r\n            \r\n            //   ID   \r\n            recentNicknames[i] = games[userBlocks[i].user].nickname[lastBlockId];\r\n            recentAddresses[i] = userBlocks[i].user;\r\n        }\r\n\r\n        return (recentNicknames, recentAddresses);\r\n        }\r\n}\r\n",
  "sourcePath": "C:\\ljs\\project\\id\\contracts\\IdProject.sol",
  "compiler": {
    "name": "solc",
    "version": "0.8.19+commit.7dd6d404.Emscripten.clang"
  },
  "schemaVersion": "3.4.16",
  "updatedAt": "2025-02-05T02:46:28.291Z",
  "networkType": "ethereum",
  "devdoc": {
    "kind": "dev",
    "methods": {},
    "version": 1
  },
  "userdoc": {
    "kind": "user",
    "methods": {},
    "version": 1
  }
}