{
  "contractName": "IdProject",
  "abi": [
    {
      "inputs": [],
      "name": "blockCount",
      "outputs": [
        {
          "internalType": "uint256",
          "name": "",
          "type": "uint256"
        }
      ],
      "stateMutability": "view",
      "type": "function",
      "constant": true
    },
    {
      "inputs": [
        {
          "internalType": "address",
          "name": "",
          "type": "address"
        }
      ],
      "name": "games",
      "outputs": [
        {
          "internalType": "string",
          "name": "nickname",
          "type": "string"
        }
      ],
      "stateMutability": "view",
      "type": "function",
      "constant": true
    },
    {
      "inputs": [],
      "name": "userCnt",
      "outputs": [
        {
          "internalType": "uint256",
          "name": "",
          "type": "uint256"
        }
      ],
      "stateMutability": "view",
      "type": "function",
      "constant": true
    },
    {
      "inputs": [
        {
          "internalType": "address",
          "name": "a",
          "type": "address"
        }
      ],
      "name": "add",
      "outputs": [],
      "stateMutability": "nonpayable",
      "type": "function"
    },
    {
      "inputs": [],
      "name": "getUser",
      "outputs": [
        {
          "internalType": "address[]",
          "name": "",
          "type": "address[]"
        }
      ],
      "stateMutability": "view",
      "type": "function",
      "constant": true
    },
    {
      "inputs": [
        {
          "internalType": "string",
          "name": "_nickname",
          "type": "string"
        },
        {
          "internalType": "string",
          "name": "_gameName",
          "type": "string"
        },
        {
          "internalType": "string",
          "name": "_serverName",
          "type": "string"
        },
        {
          "internalType": "string",
          "name": "_className",
          "type": "string"
        },
        {
          "internalType": "string",
          "name": "_remarks",
          "type": "string"
        }
      ],
      "name": "insertInfo",
      "outputs": [],
      "stateMutability": "nonpayable",
      "type": "function"
    },
    {
      "inputs": [
        {
          "internalType": "address",
          "name": "_address",
          "type": "address"
        }
      ],
      "name": "getIndexOf",
      "outputs": [
        {
          "internalType": "uint256[]",
          "name": "",
          "type": "uint256[]"
        }
      ],
      "stateMutability": "view",
      "type": "function",
      "constant": true
    },
    {
      "inputs": [
        {
          "internalType": "address",
          "name": "_address",
          "type": "address"
        },
        {
          "internalType": "uint256",
          "name": "_blockId",
          "type": "uint256"
        }
      ],
      "name": "getInfo",
      "outputs": [
        {
          "internalType": "string",
          "name": "",
          "type": "string"
        },
        {
          "internalType": "string",
          "name": "",
          "type": "string"
        },
        {
          "internalType": "string",
          "name": "",
          "type": "string"
        },
        {
          "internalType": "string",
          "name": "",
          "type": "string"
        },
        {
          "internalType": "string",
          "name": "",
          "type": "string"
        },
        {
          "internalType": "uint256",
          "name": "",
          "type": "uint256"
        }
      ],
      "stateMutability": "view",
      "type": "function",
      "constant": true
    },
    {
      "inputs": [
        {
          "internalType": "string",
          "name": "_search",
          "type": "string"
        }
      ],
      "name": "linearSearch",
      "outputs": [
        {
          "internalType": "string[]",
          "name": "",
          "type": "string[]"
        },
        {
          "internalType": "address[]",
          "name": "",
          "type": "address[]"
        }
      ],
      "stateMutability": "view",
      "type": "function",
      "constant": true
    }
  ],
  "bytecode": "0x608060405234801561001057600080fd5b506120cc806100206000396000f3fe608060405234801561001057600080fd5b50600436106100935760003560e01c806360407c8d1161006657806360407c8d1461011e578063655f478b1461013c5780636a91e7bc1461016d57806379131a19146101a2578063832880e7146101d257610093565b8063017df5221461009857806307225b4d146100c85780630a3b0a4f146100e657806325bc155b14610102575b600080fd5b6100b260048036038101906100ad9190611389565b6101f0565b6040516100bf919061147e565b60405180910390f35b6100d0610289565b6040516100dd91906114af565b60405180910390f35b61010060048036038101906100fb9190611389565b61028f565b005b61011c60048036038101906101179190611610565b6103c0565b005b61012661074e565b60405161013391906114af565b60405180910390f35b61015660048036038101906101519190611717565b610754565b60405161016492919061195f565b60405180910390f35b610187600480360381019061018291906119c2565b610cb1565b60405161019996959493929190611a4c565b60405180910390f35b6101bc60048036038101906101b79190611389565b611169565b6040516101c99190611ad0565b60405180910390f35b6101da61120f565b6040516101e79190611af2565b60405180910390f35b60606000808373ffffffffffffffffffffffffffffffffffffffff1673ffffffffffffffffffffffffffffffffffffffff16815260200190815260200160002060000180548060200260200160405190810160405280929190818152602001828054801561027d57602002820191906000526020600020905b815481526020019060010190808311610269575b50505050509050919050565b60015481565b600360010160008273ffffffffffffffffffffffffffffffffffffffff1673ffffffffffffffffffffffffffffffffffffffff16815260200190815260200160002060009054906101000a900460ff166103bd576003600001819080600181540180825580915050600190039060005260206000200160009091909190916101000a81548173ffffffffffffffffffffffffffffffffffffffff021916908373ffffffffffffffffffffffffffffffffffffffff1602179055506001600360010160008373ffffffffffffffffffffffffffffffffffffffff1673ffffffffffffffffffffffffffffffffffffffff16815260200190815260200160002060006101000a81548160ff021916908315150217905550600260008154809291906103b790611b43565b91905055505b50565b6000845111610404576040517f08c379a00000000000000000000000000000000000000000000000000000000081526004016103fb90611bd7565b60405180910390fd5b6000835111610448576040517f08c379a000000000000000000000000000000000000000000000000000000000815260040161043f90611c43565b60405180910390fd5b600082511161048c576040517f08c379a000000000000000000000000000000000000000000000000000000000815260040161048390611caf565b60405180910390fd5b6001600081548092919061049f90611b43565b91905055506104ad3361028f565b6000803373ffffffffffffffffffffffffffffffffffffffff1673ffffffffffffffffffffffffffffffffffffffff1681526020019081526020016000206000016001549080600181540180825580915050600190039060005260206000200160009091909190915055846000803373ffffffffffffffffffffffffffffffffffffffff1673ffffffffffffffffffffffffffffffffffffffff16815260200190815260200160002060010190816105659190611edb565b50836000803373ffffffffffffffffffffffffffffffffffffffff1673ffffffffffffffffffffffffffffffffffffffff1681526020019081526020016000206002016000600154815260200190815260200160002090816105c79190611edb565b50826000803373ffffffffffffffffffffffffffffffffffffffff1673ffffffffffffffffffffffffffffffffffffffff1681526020019081526020016000206003016000600154815260200190815260200160002090816106299190611edb565b50816000803373ffffffffffffffffffffffffffffffffffffffff1673ffffffffffffffffffffffffffffffffffffffff16815260200190815260200160002060040160006001548152602001908152602001600020908161068b9190611edb565b50806000803373ffffffffffffffffffffffffffffffffffffffff1673ffffffffffffffffffffffffffffffffffffffff1681526020019081526020016000206005016000600154815260200190815260200160002090816106ed9190611edb565b50426000803373ffffffffffffffffffffffffffffffffffffffff1673ffffffffffffffffffffffffffffffffffffffff16815260200190815260200160002060060160006001548152602001908152602001600020819055505050505050565b60025481565b606080600061076161120f565b9050600060025467ffffffffffffffff811115610781576107806114e5565b5b6040519080825280602002602001820160405280156107b457816020015b606081526020019060019003908161079f5790505b509050600060025467ffffffffffffffff8111156107d5576107d46114e5565b5b6040519080825280602002602001820160405280156108035781602001602082028036833780820191505090505b5090506000805b600254811015610b4057600061083986838151811061082c5761082b611fad565b5b60200260200101516101f0565b905060005b8151811015610b2b57898051906020012060008089868151811061086557610864611fad565b5b602002602001015173ffffffffffffffffffffffffffffffffffffffff1673ffffffffffffffffffffffffffffffffffffffff16815260200190815260200160002060020160008484815181106108bf576108be611fad565b5b602002602001015181526020019081526020016000206040516108e2919061207f565b604051809103902014806109965750898051906020012060008089868151811061090f5761090e611fad565b5b602002602001015173ffffffffffffffffffffffffffffffffffffffff1673ffffffffffffffffffffffffffffffffffffffff168152602001908152602001600020600301600084848151811061096957610968611fad565b5b6020026020010151815260200190815260200160002060405161098c919061207f565b6040518091039020145b15610b18576000808885815181106109b1576109b0611fad565b5b602002602001015173ffffffffffffffffffffffffffffffffffffffff1673ffffffffffffffffffffffffffffffffffffffff1681526020019081526020016000206001018054610a0190611cfe565b80601f0160208091040260200160405190810160405280929190818152602001828054610a2d90611cfe565b8015610a7a5780601f10610a4f57610100808354040283529160200191610a7a565b820191906000526020600020905b815481529060010190602001808311610a5d57829003601f168201915b5050505050868581518110610a9257610a91611fad565b5b6020026020010181905250868381518110610ab057610aaf611fad565b5b6020026020010151858581518110610acb57610aca611fad565b5b602002602001019073ffffffffffffffffffffffffffffffffffffffff16908173ffffffffffffffffffffffffffffffffffffffff16815250508380610b1090611b43565b945050610b2b565b8080610b2390611b43565b91505061083e565b50508080610b3890611b43565b91505061080a565b5060008167ffffffffffffffff811115610b5d57610b5c6114e5565b5b604051908082528060200260200182016040528015610b9057816020015b6060815260200190600190039081610b7b5790505b50905060008267ffffffffffffffff811115610baf57610bae6114e5565b5b604051908082528060200260200182016040528015610bdd5781602001602082028036833780820191505090505b50905060005b83811015610c9f57858181518110610bfe57610bfd611fad565b5b6020026020010151838281518110610c1957610c18611fad565b5b6020026020010181905250848181518110610c3757610c36611fad565b5b6020026020010151828281518110610c5257610c51611fad565b5b602002602001019073ffffffffffffffffffffffffffffffffffffffff16908173ffffffffffffffffffffffffffffffffffffffff16815250508080610c9790611b43565b915050610be3565b50818197509750505050505050915091565b606080606080606060008060008973ffffffffffffffffffffffffffffffffffffffff1673ffffffffffffffffffffffffffffffffffffffff1681526020019081526020016000206001016000808a73ffffffffffffffffffffffffffffffffffffffff1673ffffffffffffffffffffffffffffffffffffffff16815260200190815260200160002060020160008981526020019081526020016000206000808b73ffffffffffffffffffffffffffffffffffffffff1673ffffffffffffffffffffffffffffffffffffffff16815260200190815260200160002060030160008a81526020019081526020016000206000808c73ffffffffffffffffffffffffffffffffffffffff1673ffffffffffffffffffffffffffffffffffffffff16815260200190815260200160002060040160008b81526020019081526020016000206000808d73ffffffffffffffffffffffffffffffffffffffff1673ffffffffffffffffffffffffffffffffffffffff16815260200190815260200160002060050160008c81526020019081526020016000206000808e73ffffffffffffffffffffffffffffffffffffffff1673ffffffffffffffffffffffffffffffffffffffff16815260200190815260200160002060060160008d815260200190815260200160002054858054610ea390611cfe565b80601f0160208091040260200160405190810160405280929190818152602001828054610ecf90611cfe565b8015610f1c5780601f10610ef157610100808354040283529160200191610f1c565b820191906000526020600020905b815481529060010190602001808311610eff57829003601f168201915b50505050509550848054610f2f90611cfe565b80601f0160208091040260200160405190810160405280929190818152602001828054610f5b90611cfe565b8015610fa85780601f10610f7d57610100808354040283529160200191610fa8565b820191906000526020600020905b815481529060010190602001808311610f8b57829003601f168201915b50505050509450838054610fbb90611cfe565b80601f0160208091040260200160405190810160405280929190818152602001828054610fe790611cfe565b80156110345780601f1061100957610100808354040283529160200191611034565b820191906000526020600020905b81548152906001019060200180831161101757829003601f168201915b5050505050935082805461104790611cfe565b80601f016020809104026020016040519081016040528092919081815260200182805461107390611cfe565b80156110c05780601f10611095576101008083540402835291602001916110c0565b820191906000526020600020905b8154815290600101906020018083116110a357829003601f168201915b505050505092508180546110d390611cfe565b80601f01602080910402602001604051908101604052809291908181526020018280546110ff90611cfe565b801561114c5780601f106111215761010080835404028352916020019161114c565b820191906000526020600020905b81548152906001019060200180831161112f57829003601f168201915b505050505091509550955095509550955095509295509295509295565b600060205280600052604060002060009150905080600101805461118c90611cfe565b80601f01602080910402602001604051908101604052809291908181526020018280546111b890611cfe565b80156112055780601f106111da57610100808354040283529160200191611205565b820191906000526020600020905b8154815290600101906020018083116111e857829003601f168201915b5050505050905081565b6060600060025467ffffffffffffffff81111561122f5761122e6114e5565b5b60405190808252806020026020018201604052801561125d5781602001602082028036833780820191505090505b50905060005b60025481101561130f576003600001818154811061128457611283611fad565b5b9060005260206000200160009054906101000a900473ffffffffffffffffffffffffffffffffffffffff168282815181106112c2576112c1611fad565b5b602002602001019073ffffffffffffffffffffffffffffffffffffffff16908173ffffffffffffffffffffffffffffffffffffffff1681525050808061130790611b43565b915050611263565b508091505090565b6000604051905090565b600080fd5b600080fd5b600073ffffffffffffffffffffffffffffffffffffffff82169050919050565b60006113568261132b565b9050919050565b6113668161134b565b811461137157600080fd5b50565b6000813590506113838161135d565b92915050565b60006020828403121561139f5761139e611321565b5b60006113ad84828501611374565b91505092915050565b600081519050919050565b600082825260208201905092915050565b6000819050602082019050919050565b6000819050919050565b6113f5816113e2565b82525050565b600061140783836113ec565b60208301905092915050565b6000602082019050919050565b600061142b826113b6565b61143581856113c1565b9350611440836113d2565b8060005b8381101561147157815161145888826113fb565b975061146383611413565b925050600181019050611444565b5085935050505092915050565b600060208201905081810360008301526114988184611420565b905092915050565b6114a9816113e2565b82525050565b60006020820190506114c460008301846114a0565b92915050565b600080fd5b600080fd5b6000601f19601f8301169050919050565b7f4e487b7100000000000000000000000000000000000000000000000000000000600052604160045260246000fd5b61151d826114d4565b810181811067ffffffffffffffff8211171561153c5761153b6114e5565b5b80604052505050565b600061154f611317565b905061155b8282611514565b919050565b600067ffffffffffffffff82111561157b5761157a6114e5565b5b611584826114d4565b9050602081019050919050565b82818337600083830152505050565b60006115b36115ae84611560565b611545565b9050828152602081018484840111156115cf576115ce6114cf565b5b6115da848285611591565b509392505050565b600082601f8301126115f7576115f66114ca565b5b81356116078482602086016115a0565b91505092915050565b600080600080600060a0868803121561162c5761162b611321565b5b600086013567ffffffffffffffff81111561164a57611649611326565b5b611656888289016115e2565b955050602086013567ffffffffffffffff81111561167757611676611326565b5b611683888289016115e2565b945050604086013567ffffffffffffffff8111156116a4576116a3611326565b5b6116b0888289016115e2565b935050606086013567ffffffffffffffff8111156116d1576116d0611326565b5b6116dd888289016115e2565b925050608086013567ffffffffffffffff8111156116fe576116fd611326565b5b61170a888289016115e2565b9150509295509295909350565b60006020828403121561172d5761172c611321565b5b600082013567ffffffffffffffff81111561174b5761174a611326565b5b611757848285016115e2565b91505092915050565b600081519050919050565b600082825260208201905092915050565b6000819050602082019050919050565b600081519050919050565b600082825260208201905092915050565b60005b838110156117c65780820151818401526020810190506117ab565b60008484015250505050565b60006117dd8261178c565b6117e78185611797565b93506117f78185602086016117a8565b611800816114d4565b840191505092915050565b600061181783836117d2565b905092915050565b6000602082019050919050565b600061183782611760565b611841818561176b565b9350836020820285016118538561177c565b8060005b8581101561188f5784840389528151611870858261180b565b945061187b8361181f565b925060208a01995050600181019050611857565b50829750879550505050505092915050565b600081519050919050565b600082825260208201905092915050565b6000819050602082019050919050565b6118d68161134b565b82525050565b60006118e883836118cd565b60208301905092915050565b6000602082019050919050565b600061190c826118a1565b61191681856118ac565b9350611921836118bd565b8060005b8381101561195257815161193988826118dc565b9750611944836118f4565b925050600181019050611925565b5085935050505092915050565b60006040820190508181036000830152611979818561182c565b9050818103602083015261198d8184611901565b90509392505050565b61199f816113e2565b81146119aa57600080fd5b50565b6000813590506119bc81611996565b92915050565b600080604083850312156119d9576119d8611321565b5b60006119e785828601611374565b92505060206119f8858286016119ad565b9150509250929050565b600082825260208201905092915050565b6000611a1e8261178c565b611a288185611a02565b9350611a388185602086016117a8565b611a41816114d4565b840191505092915050565b600060c0820190508181036000830152611a668189611a13565b90508181036020830152611a7a8188611a13565b90508181036040830152611a8e8187611a13565b90508181036060830152611aa28186611a13565b90508181036080830152611ab68185611a13565b9050611ac560a08301846114a0565b979650505050505050565b60006020820190508181036000830152611aea8184611a13565b905092915050565b60006020820190508181036000830152611b0c8184611901565b905092915050565b7f4e487b7100000000000000000000000000000000000000000000000000000000600052601160045260246000fd5b6000611b4e826113e2565b91507fffffffffffffffffffffffffffffffffffffffffffffffffffffffffffffffff8203611b8057611b7f611b14565b5b600182019050919050565b7f47616d65204e616d652069732072657175697265640000000000000000000000600082015250565b6000611bc1601583611a02565b9150611bcc82611b8b565b602082019050919050565b60006020820190508181036000830152611bf081611bb4565b9050919050565b7f536572766572204e616d65206973207265717569726564000000000000000000600082015250565b6000611c2d601783611a02565b9150611c3882611bf7565b602082019050919050565b60006020820190508181036000830152611c5c81611c20565b9050919050565b7f436c617373204e616d6520697320726571756972656400000000000000000000600082015250565b6000611c99601683611a02565b9150611ca482611c63565b602082019050919050565b60006020820190508181036000830152611cc881611c8c565b9050919050565b7f4e487b7100000000000000000000000000000000000000000000000000000000600052602260045260246000fd5b60006002820490506001821680611d1657607f821691505b602082108103611d2957611d28611ccf565b5b50919050565b60008190508160005260206000209050919050565b60006020601f8301049050919050565b600082821b905092915050565b600060088302611d917fffffffffffffffffffffffffffffffffffffffffffffffffffffffffffffffff82611d54565b611d9b8683611d54565b95508019841693508086168417925050509392505050565b6000819050919050565b6000611dd8611dd3611dce846113e2565b611db3565b6113e2565b9050919050565b6000819050919050565b611df283611dbd565b611e06611dfe82611ddf565b848454611d61565b825550505050565b600090565b611e1b611e0e565b611e26818484611de9565b505050565b5b81811015611e4a57611e3f600082611e13565b600181019050611e2c565b5050565b601f821115611e8f57611e6081611d2f565b611e6984611d44565b81016020851015611e78578190505b611e8c611e8485611d44565b830182611e2b565b50505b505050565b600082821c905092915050565b6000611eb260001984600802611e94565b1980831691505092915050565b6000611ecb8383611ea1565b9150826002028217905092915050565b611ee48261178c565b67ffffffffffffffff811115611efd57611efc6114e5565b5b611f078254611cfe565b611f12828285611e4e565b600060209050601f831160018114611f455760008415611f33578287015190505b611f3d8582611ebf565b865550611fa5565b601f198416611f5386611d2f565b60005b82811015611f7b57848901518255600182019150602085019450602081019050611f56565b86831015611f985784890151611f94601f891682611ea1565b8355505b6001600288020188555050505b505050505050565b7f4e487b7100000000000000000000000000000000000000000000000000000000600052603260045260246000fd5b600081905092915050565b60008190508160005260206000209050919050565b6000815461200981611cfe565b6120138186611fdc565b9450600182166000811461202e576001811461204357612076565b60ff1983168652811515820286019350612076565b61204c85611fe7565b60005b8381101561206e5781548189015260018201915060208101905061204f565b838801955050505b50505092915050565b600061208b8284611ffc565b91508190509291505056fea26469706673582212203427783cf5088aeef1cde438a4f0c022ac4ee4a35a657be12a6b684bfd8922f064736f6c63430008130033",
  "immutableReferences": {},
  "source": "//SPDX-License-Identifier: MIT\r\npragma solidity ^0.8.19;\r\n\r\ncontract IdProject {\r\n    struct Game {\r\n        uint[] blockId;\r\n        string nickname;\r\n        mapping(uint256 => string) gameName;\r\n        mapping(uint256 => string) serverName;\r\n        mapping(uint256 => string) className;\r\n        mapping(uint256 => string) remarks;\r\n        mapping(uint256 => uint) date;\r\n    }\r\n\r\n    mapping(address => Game) public games;\r\n\r\n    uint256 public blockCount;\r\n\r\n    struct Set {\r\n        address[] values;\r\n        mapping(address => bool) is_in;\r\n    }\r\n\r\n    uint public userCnt;\r\n    Set userSet;\r\n\r\n    function add(address a) public {\r\n        if (!userSet.is_in[a]) {\r\n            userSet.values.push(a);\r\n            userSet.is_in[a] = true;\r\n            userCnt++;\r\n        }\r\n    }\r\n\r\n    function getUser() public view returns (address[] memory) {\r\n        address[] memory userList = new address[](userCnt);\r\n        for (uint i = 0; i < userCnt; i++) {\r\n            userList[i] = userSet.values[i];\r\n        }\r\n        return userList;\r\n    }\r\n\r\n    // \r\n    function insertInfo(\r\n        string memory _nickname,\r\n        string memory _gameName,\r\n        string memory _serverName,\r\n        string memory _className,\r\n        string memory _remarks\r\n    ) public {\r\n        require(bytes(_gameName).length > 0, \"Game Name is required\");\r\n        require(bytes(_serverName).length > 0, \"Server Name is required\");\r\n        require(bytes(_className).length > 0, \"Class Name is required\");\r\n\r\n        blockCount++;\r\n        add(msg.sender);\r\n\r\n        games[msg.sender].blockId.push(blockCount);\r\n        games[msg.sender].nickname = _nickname;\r\n        games[msg.sender].gameName[blockCount] = _gameName;\r\n        games[msg.sender].serverName[blockCount] = _serverName;\r\n        games[msg.sender].className[blockCount] = _className;\r\n        games[msg.sender].remarks[blockCount] = _remarks;\r\n        games[msg.sender].date[blockCount] = block.timestamp;\r\n    }\r\n\r\n    //    () -->  \r\n    function getIndexOf(address _address) public view returns (uint[] memory) {\r\n        return games[_address].blockId;\r\n    }\r\n\r\n    //  \r\n    function getInfo(\r\n        address _address,\r\n        uint _blockId\r\n    )\r\n        public\r\n        view\r\n        returns (\r\n            string memory,\r\n            string memory,\r\n            string memory,\r\n            string memory,\r\n            string memory,\r\n            uint\r\n        )\r\n    {\r\n        return (\r\n            games[_address].nickname,\r\n            games[_address].gameName[_blockId],\r\n            games[_address].serverName[_blockId],\r\n            games[_address].className[_blockId],\r\n            games[_address].remarks[_blockId],\r\n            games[_address].date[_blockId]\r\n        );\r\n    }\r\n\r\n    //  -->  .\r\n    function linearSearch(\r\n        string memory _search\r\n    ) public view returns (string[] memory, address[] memory) {\r\n        address[] memory user = getUser();\r\n\r\n        //      \r\n        string[] memory tempUsers = new string[](userCnt);\r\n        address[] memory tempAddresses = new address[](userCnt);\r\n        uint cnt = 0;\r\n\r\n        for (uint i = 0; i < userCnt; i++) {\r\n            uint[] memory blocks = getIndexOf(user[i]);\r\n            for (uint j = 0; j < blocks.length; j++) {\r\n                if (\r\n                    keccak256(bytes(games[user[i]].gameName[blocks[j]])) ==\r\n                    keccak256(bytes(_search)) ||\r\n                    keccak256(bytes(games[user[i]].serverName[blocks[j]])) ==\r\n                    keccak256(bytes(_search))\r\n                ) {\r\n                    tempUsers[cnt] = games[user[i]].nickname;\r\n                    tempAddresses[cnt] = user[i];\r\n                    cnt++;\r\n                    break; //      \r\n                }\r\n            }\r\n        }\r\n\r\n        //    \r\n        string[] memory users = new string[](cnt);\r\n        address[] memory addresses = new address[](cnt);\r\n\r\n        for (uint k = 0; k < cnt; k++) {\r\n            users[k] = tempUsers[k];\r\n            addresses[k] = tempAddresses[k];\r\n        }\r\n\r\n        return (users, addresses);\r\n    }\r\n}\r\n",
  "sourcePath": "C:\\ljs\\project\\id\\contracts\\IdProject.sol",
  "compiler": {
    "name": "solc",
    "version": "0.8.19+commit.7dd6d404.Emscripten.clang"
  },
  "schemaVersion": "3.4.16",
  "updatedAt": "2025-02-03T04:49:52.248Z",
  "networkType": "ethereum",
  "devdoc": {
    "kind": "dev",
    "methods": {},
    "version": 1
  },
  "userdoc": {
    "kind": "user",
    "methods": {},
    "version": 1
  }
}