{
  "contractName": "IdProject",
  "abi": [
    {
      "inputs": [],
      "stateMutability": "nonpayable",
      "type": "constructor"
    },
    {
      "anonymous": false,
      "inputs": [
        {
          "indexed": true,
          "internalType": "address",
          "name": "from",
          "type": "address"
        },
        {
          "indexed": true,
          "internalType": "address",
          "name": "to",
          "type": "address"
        },
        {
          "indexed": false,
          "internalType": "uint256",
          "name": "value",
          "type": "uint256"
        }
      ],
      "name": "Transfer",
      "type": "event"
    },
    {
      "inputs": [
        {
          "internalType": "address",
          "name": "",
          "type": "address"
        },
        {
          "internalType": "address",
          "name": "",
          "type": "address"
        }
      ],
      "name": "allowance",
      "outputs": [
        {
          "internalType": "uint256",
          "name": "",
          "type": "uint256"
        }
      ],
      "stateMutability": "view",
      "type": "function",
      "constant": true
    },
    {
      "inputs": [
        {
          "internalType": "address",
          "name": "",
          "type": "address"
        }
      ],
      "name": "balanceOf",
      "outputs": [
        {
          "internalType": "uint256",
          "name": "",
          "type": "uint256"
        }
      ],
      "stateMutability": "view",
      "type": "function",
      "constant": true
    },
    {
      "inputs": [],
      "name": "blockCount",
      "outputs": [
        {
          "internalType": "uint256",
          "name": "",
          "type": "uint256"
        }
      ],
      "stateMutability": "view",
      "type": "function",
      "constant": true
    },
    {
      "inputs": [],
      "name": "decimals",
      "outputs": [
        {
          "internalType": "uint8",
          "name": "",
          "type": "uint8"
        }
      ],
      "stateMutability": "view",
      "type": "function",
      "constant": true
    },
    {
      "inputs": [
        {
          "internalType": "address",
          "name": "",
          "type": "address"
        }
      ],
      "name": "lastMineTime",
      "outputs": [
        {
          "internalType": "uint256",
          "name": "",
          "type": "uint256"
        }
      ],
      "stateMutability": "view",
      "type": "function",
      "constant": true
    },
    {
      "inputs": [],
      "name": "miningReward",
      "outputs": [
        {
          "internalType": "uint256",
          "name": "",
          "type": "uint256"
        }
      ],
      "stateMutability": "view",
      "type": "function",
      "constant": true
    },
    {
      "inputs": [],
      "name": "name",
      "outputs": [
        {
          "internalType": "string",
          "name": "",
          "type": "string"
        }
      ],
      "stateMutability": "view",
      "type": "function",
      "constant": true
    },
    {
      "inputs": [],
      "name": "owner",
      "outputs": [
        {
          "internalType": "address",
          "name": "",
          "type": "address"
        }
      ],
      "stateMutability": "view",
      "type": "function",
      "constant": true
    },
    {
      "inputs": [],
      "name": "symbol",
      "outputs": [
        {
          "internalType": "string",
          "name": "",
          "type": "string"
        }
      ],
      "stateMutability": "view",
      "type": "function",
      "constant": true
    },
    {
      "inputs": [],
      "name": "totalSupply",
      "outputs": [
        {
          "internalType": "uint256",
          "name": "",
          "type": "uint256"
        }
      ],
      "stateMutability": "view",
      "type": "function",
      "constant": true
    },
    {
      "inputs": [],
      "name": "userCnt",
      "outputs": [
        {
          "internalType": "uint256",
          "name": "",
          "type": "uint256"
        }
      ],
      "stateMutability": "view",
      "type": "function",
      "constant": true
    },
    {
      "inputs": [
        {
          "internalType": "address",
          "name": "_to",
          "type": "address"
        },
        {
          "internalType": "uint256",
          "name": "_value",
          "type": "uint256"
        }
      ],
      "name": "transfer",
      "outputs": [
        {
          "internalType": "bool",
          "name": "success",
          "type": "bool"
        }
      ],
      "stateMutability": "nonpayable",
      "type": "function"
    },
    {
      "inputs": [
        {
          "internalType": "address",
          "name": "a",
          "type": "address"
        }
      ],
      "name": "add",
      "outputs": [],
      "stateMutability": "nonpayable",
      "type": "function"
    },
    {
      "inputs": [],
      "name": "getUser",
      "outputs": [
        {
          "internalType": "address[]",
          "name": "",
          "type": "address[]"
        }
      ],
      "stateMutability": "view",
      "type": "function",
      "constant": true
    },
    {
      "inputs": [
        {
          "internalType": "string",
          "name": "_nickname",
          "type": "string"
        },
        {
          "internalType": "string",
          "name": "_gameName",
          "type": "string"
        },
        {
          "internalType": "string",
          "name": "_serverName",
          "type": "string"
        },
        {
          "internalType": "string",
          "name": "_className",
          "type": "string"
        },
        {
          "internalType": "string",
          "name": "_remarks",
          "type": "string"
        }
      ],
      "name": "insertInfo",
      "outputs": [],
      "stateMutability": "nonpayable",
      "type": "function"
    },
    {
      "inputs": [
        {
          "internalType": "address",
          "name": "_address",
          "type": "address"
        }
      ],
      "name": "getIndexOf",
      "outputs": [
        {
          "internalType": "uint256[]",
          "name": "",
          "type": "uint256[]"
        }
      ],
      "stateMutability": "view",
      "type": "function",
      "constant": true
    },
    {
      "inputs": [
        {
          "internalType": "address",
          "name": "_address",
          "type": "address"
        },
        {
          "internalType": "uint256",
          "name": "_blockId",
          "type": "uint256"
        }
      ],
      "name": "getInfo",
      "outputs": [
        {
          "internalType": "string",
          "name": "",
          "type": "string"
        },
        {
          "internalType": "string",
          "name": "",
          "type": "string"
        },
        {
          "internalType": "string",
          "name": "",
          "type": "string"
        },
        {
          "internalType": "string",
          "name": "",
          "type": "string"
        },
        {
          "internalType": "string",
          "name": "",
          "type": "string"
        },
        {
          "internalType": "uint256",
          "name": "",
          "type": "uint256"
        }
      ],
      "stateMutability": "view",
      "type": "function",
      "constant": true
    },
    {
      "inputs": [
        {
          "internalType": "string",
          "name": "_search",
          "type": "string"
        }
      ],
      "name": "linearSearch",
      "outputs": [
        {
          "internalType": "string[]",
          "name": "",
          "type": "string[]"
        },
        {
          "internalType": "address[]",
          "name": "",
          "type": "address[]"
        }
      ],
      "stateMutability": "view",
      "type": "function",
      "constant": true
    },
    {
      "inputs": [],
      "name": "getTotalUserCount",
      "outputs": [
        {
          "internalType": "uint256",
          "name": "",
          "type": "uint256"
        }
      ],
      "stateMutability": "view",
      "type": "function",
      "constant": true
    },
    {
      "inputs": [],
      "name": "getTotalBlockCount",
      "outputs": [
        {
          "internalType": "uint256",
          "name": "",
          "type": "uint256"
        }
      ],
      "stateMutability": "view",
      "type": "function",
      "constant": true
    },
    {
      "inputs": [],
      "name": "getRecentUser",
      "outputs": [
        {
          "internalType": "string[]",
          "name": "",
          "type": "string[]"
        },
        {
          "internalType": "address[]",
          "name": "",
          "type": "address[]"
        }
      ],
      "stateMutability": "view",
      "type": "function",
      "constant": true
    },
    {
      "inputs": [],
      "name": "mine",
      "outputs": [],
      "stateMutability": "nonpayable",
      "type": "function"
    },
    {
      "inputs": [
        {
          "internalType": "address",
          "name": "_user",
          "type": "address"
        }
      ],
      "name": "getTokenBalance",
      "outputs": [
        {
          "internalType": "uint256",
          "name": "",
          "type": "uint256"
        }
      ],
      "stateMutability": "view",
      "type": "function",
      "constant": true
    }
  ],
  "bytecode": "0x60806040526040518060400160405280600781526020017f5768617473494400000000000000000000000000000000000000000000000000815250600090816200004a919062000421565b506040518060400160405280600381526020017f57494400000000000000000000000000000000000000000000000000000000008152506001908162000091919062000421565b506012600260006101000a81548160ff021916908360ff1602179055506103e8600d55348015620000c157600080fd5b5033600460006101000a81548173ffffffffffffffffffffffffffffffffffffffff021916908373ffffffffffffffffffffffffffffffffffffffff160217905550600260009054906101000a900460ff16600a62000121919062000698565b64174876e800620001339190620006e9565b60038190555060035460056000600460009054906101000a900473ffffffffffffffffffffffffffffffffffffffff1673ffffffffffffffffffffffffffffffffffffffff1673ffffffffffffffffffffffffffffffffffffffff1681526020019081526020016000208190555062000734565b600081519050919050565b7f4e487b7100000000000000000000000000000000000000000000000000000000600052604160045260246000fd5b7f4e487b7100000000000000000000000000000000000000000000000000000000600052602260045260246000fd5b600060028204905060018216806200022957607f821691505b6020821081036200023f576200023e620001e1565b5b50919050565b60008190508160005260206000209050919050565b60006020601f8301049050919050565b600082821b905092915050565b600060088302620002a97fffffffffffffffffffffffffffffffffffffffffffffffffffffffffffffffff826200026a565b620002b586836200026a565b95508019841693508086168417925050509392505050565b6000819050919050565b6000819050919050565b600062000302620002fc620002f684620002cd565b620002d7565b620002cd565b9050919050565b6000819050919050565b6200031e83620002e1565b620003366200032d8262000309565b84845462000277565b825550505050565b600090565b6200034d6200033e565b6200035a81848462000313565b505050565b5b8181101562000382576200037660008262000343565b60018101905062000360565b5050565b601f821115620003d1576200039b8162000245565b620003a6846200025a565b81016020851015620003b6578190505b620003ce620003c5856200025a565b8301826200035f565b50505b505050565b600082821c905092915050565b6000620003f660001984600802620003d6565b1980831691505092915050565b6000620004118383620003e3565b9150826002028217905092915050565b6200042c82620001a7565b67ffffffffffffffff811115620004485762000447620001b2565b5b62000454825462000210565b6200046182828562000386565b600060209050601f83116001811462000499576000841562000484578287015190505b62000490858262000403565b86555062000500565b601f198416620004a98662000245565b60005b82811015620004d357848901518255600182019150602085019450602081019050620004ac565b86831015620004f35784890151620004ef601f891682620003e3565b8355505b6001600288020188555050505b505050505050565b7f4e487b7100000000000000000000000000000000000000000000000000000000600052601160045260246000fd5b60008160011c9050919050565b6000808291508390505b600185111562000596578086048111156200056e576200056d62000508565b5b60018516156200057e5780820291505b80810290506200058e8562000537565b94506200054e565b94509492505050565b600082620005b1576001905062000684565b81620005c1576000905062000684565b8160018114620005da5760028114620005e5576200061b565b600191505062000684565b60ff841115620005fa57620005f962000508565b5b8360020a91508482111562000614576200061362000508565b5b5062000684565b5060208310610133831016604e8410600b8410161715620006555782820a9050838111156200064f576200064e62000508565b5b62000684565b62000664848484600162000544565b925090508184048111156200067e576200067d62000508565b5b81810290505b9392505050565b600060ff82169050919050565b6000620006a582620002cd565b9150620006b2836200068b565b9250620006e17fffffffffffffffffffffffffffffffffffffffffffffffffffffffffffffffff84846200059f565b905092915050565b6000620006f682620002cd565b91506200070383620002cd565b92508282026200071381620002cd565b915082820484148315176200072d576200072c62000508565b5b5092915050565b6136db80620007446000396000f3fe608060405234801561001057600080fd5b506004361061014d5760003560e01c806360407c8d116100c357806395d89b411161007c57806395d89b41146103ad57806399f4b251146103cb578063a9059cbb146103d5578063d38aac9214610405578063dd62ed3e14610423578063ee6b373b146104535761014d565b806360407c8d146102bd578063655f478b146102db5780636a91e7bc1461030c57806370a0823114610341578063832880e7146103715780638da5cb5b1461038f5761014d565b806310691ad01161011557806310691ad0146101f857806318160ddd1461021757806325bc155b14610235578063313ce567146102515780633aecd0e31461026f5780634ac2d1031461029f5761014d565b8063017df5221461015257806306fdde031461018257806307225b4d146101a05780630a3b0a4f146101be5780630fab82be146101da575b600080fd5b61016c60048036038101906101679190612459565b610483565b604051610179919061254e565b60405180910390f35b61018a61051d565b6040516101979190612600565b60405180910390f35b6101a86105ab565b6040516101b59190612631565b60405180910390f35b6101d860048036038101906101d39190612459565b6105b1565b005b6101e26106e2565b6040516101ef9190612631565b60405180910390f35b6102006106ec565b60405161020e929190612816565b60405180910390f35b61021f610d31565b60405161022c9190612631565b60405180910390f35b61024f600480360381019061024a9190612982565b610d37565b005b6102596110df565b6040516102669190612aa5565b60405180910390f35b61028960048036038101906102849190612459565b6110f2565b6040516102969190612631565b60405180910390f35b6102a761113b565b6040516102b49190612631565b60405180910390f35b6102c5611141565b6040516102d29190612631565b60405180910390f35b6102f560048036038101906102f09190612ac0565b611147565b604051610303929190612816565b60405180910390f35b61032660048036038101906103219190612b35565b6116d2565b60405161033896959493929190612b75565b60405180910390f35b61035b60048036038101906103569190612459565b611ba1565b6040516103689190612631565b60405180910390f35b610379611bb9565b6040516103869190612bf9565b60405180910390f35b610397611cc1565b6040516103a49190612c2a565b60405180910390f35b6103b5611ce7565b6040516103c29190612600565b60405180910390f35b6103d3611d75565b005b6103ef60048036038101906103ea9190612b35565b612162565b6040516103fc9190612c60565b60405180910390f35b61040d612370565b60405161041a9190612631565b60405180910390f35b61043d60048036038101906104389190612c7b565b61237a565b60405161044a9190612631565b60405180910390f35b61046d60048036038101906104689190612459565b61239f565b60405161047a9190612631565b60405180910390f35b6060600760008373ffffffffffffffffffffffffffffffffffffffff1673ffffffffffffffffffffffffffffffffffffffff16815260200190815260200160002060000180548060200260200160405190810160405280929190818152602001828054801561051157602002820191906000526020600020905b8154815260200190600101908083116104fd575b50505050509050919050565b6000805461052a90612cea565b80601f016020809104026020016040519081016040528092919081815260200182805461055690612cea565b80156105a35780601f10610578576101008083540402835291602001916105a3565b820191906000526020600020905b81548152906001019060200180831161058657829003601f168201915b505050505081565b60085481565b600a60010160008273ffffffffffffffffffffffffffffffffffffffff1673ffffffffffffffffffffffffffffffffffffffff16815260200190815260200160002060009054906101000a900460ff166106df57600a600001819080600181540180825580915050600190039060005260206000200160009091909190916101000a81548173ffffffffffffffffffffffffffffffffffffffff021916908373ffffffffffffffffffffffffffffffffffffffff1602179055506001600a60010160008373ffffffffffffffffffffffffffffffffffffffff1673ffffffffffffffffffffffffffffffffffffffff16815260200190815260200160002060006101000a81548160ff021916908315150217905550600960008154809291906106d990612d4a565b91905055505b50565b6000600854905090565b6060806000600a905060006106ff611bb9565b905060008151905060008167ffffffffffffffff81111561072357610722612857565b5b60405190808252806020026020018201604052801561075c57816020015b6107496123b7565b8152602001906001900390816107415790505b50905060005b828110156108c957600061078f85838151811061078257610781612d92565b5b6020026020010151610483565b90506000805b82518110156108505760008382815181106107b3576107b2612d92565b5b602002602001015190506000600760008a88815181106107d6576107d5612d92565b5b602002602001015173ffffffffffffffffffffffffffffffffffffffff1673ffffffffffffffffffffffffffffffffffffffff16815260200190815260200160002060060160008381526020019081526020016000205490508381111561083b578093505b5050808061084890612d4a565b915050610795565b50604051806040016040528087858151811061086f5761086e612d92565b5b602002602001015173ffffffffffffffffffffffffffffffffffffffff168152602001828152508484815181106108a9576108a8612d92565b5b6020026020010181905250505080806108c190612d4a565b915050610762565b5060005b828110156109d35760006001826108e49190612dc1565b90505b838110156109bf5782818151811061090257610901612d92565b5b60200260200101516020015183838151811061092157610920612d92565b5b60200260200101516020015110156109ac57600083838151811061094857610947612d92565b5b6020026020010151905083828151811061096557610964612d92565b5b60200260200101518484815181106109805761097f612d92565b5b60200260200101819052508084838151811061099f5761099e612d92565b5b6020026020010181905250505b80806109b790612d4a565b9150506108e7565b5080806109cb90612d4a565b9150506108cd565b5060008483106109e357846109e5565b825b905060008167ffffffffffffffff811115610a0357610a02612857565b5b604051908082528060200260200182016040528015610a3657816020015b6060815260200190600190039081610a215790505b50905060008267ffffffffffffffff811115610a5557610a54612857565b5b604051908082528060200260200182016040528015610a835781602001602082028036833780820191505090505b50905060005b83811015610d1f576000806000610abd888581518110610aac57610aab612d92565b5b602002602001015160000151610483565b905060005b8151811015610b84576000828281518110610ae057610adf612d92565b5b602002602001015190506000600760008c8981518110610b0357610b02612d92565b5b60200260200101516000015173ffffffffffffffffffffffffffffffffffffffff1673ffffffffffffffffffffffffffffffffffffffff168152602001908152602001600020600601600083815260200190815260200160002054905084811115610b6f578094508195505b50508080610b7c90612d4a565b915050610ac2565b5060076000898681518110610b9c57610b9b612d92565b5b60200260200101516000015173ffffffffffffffffffffffffffffffffffffffff1673ffffffffffffffffffffffffffffffffffffffff16815260200190815260200160002060010160008481526020019081526020016000208054610c0190612cea565b80601f0160208091040260200160405190810160405280929190818152602001828054610c2d90612cea565b8015610c7a5780601f10610c4f57610100808354040283529160200191610c7a565b820191906000526020600020905b815481529060010190602001808311610c5d57829003601f168201915b5050505050868581518110610c9257610c91612d92565b5b6020026020010181905250878481518110610cb057610caf612d92565b5b602002602001015160000151858581518110610ccf57610cce612d92565b5b602002602001019073ffffffffffffffffffffffffffffffffffffffff16908173ffffffffffffffffffffffffffffffffffffffff16815250505050508080610d1790612d4a565b915050610a89565b50818198509850505050505050509091565b60035481565b6000845111610d7b576040517f08c379a0000000000000000000000000000000000000000000000000000000008152600401610d7290612e41565b60405180910390fd5b6000835111610dbf576040517f08c379a0000000000000000000000000000000000000000000000000000000008152600401610db690612ead565b60405180910390fd5b6000825111610e03576040517f08c379a0000000000000000000000000000000000000000000000000000000008152600401610dfa90612f19565b60405180910390fd5b60086000815480929190610e1690612d4a565b9190505550610e24336105b1565b600760003373ffffffffffffffffffffffffffffffffffffffff1673ffffffffffffffffffffffffffffffffffffffff168152602001908152602001600020600001600854908060018154018082558091505060019003906000526020600020016000909190919091505584600760003373ffffffffffffffffffffffffffffffffffffffff1673ffffffffffffffffffffffffffffffffffffffff168152602001908152602001600020600101600060085481526020019081526020016000209081610ef191906130e5565b5083600760003373ffffffffffffffffffffffffffffffffffffffff1673ffffffffffffffffffffffffffffffffffffffff168152602001908152602001600020600201600060085481526020019081526020016000209081610f5491906130e5565b5082600760003373ffffffffffffffffffffffffffffffffffffffff1673ffffffffffffffffffffffffffffffffffffffff168152602001908152602001600020600301600060085481526020019081526020016000209081610fb791906130e5565b5081600760003373ffffffffffffffffffffffffffffffffffffffff1673ffffffffffffffffffffffffffffffffffffffff16815260200190815260200160002060040160006008548152602001908152602001600020908161101a91906130e5565b5080600760003373ffffffffffffffffffffffffffffffffffffffff1673ffffffffffffffffffffffffffffffffffffffff16815260200190815260200160002060050160006008548152602001908152602001600020908161107d91906130e5565b5042600760003373ffffffffffffffffffffffffffffffffffffffff1673ffffffffffffffffffffffffffffffffffffffff16815260200190815260200160002060060160006008548152602001908152602001600020819055505050505050565b600260009054906101000a900460ff1681565b6000600560008373ffffffffffffffffffffffffffffffffffffffff1673ffffffffffffffffffffffffffffffffffffffff168152602001908152602001600020549050919050565b600d5481565b60095481565b6060806000611154611bb9565b9050600060095467ffffffffffffffff81111561117457611173612857565b5b6040519080825280602002602001820160405280156111a757816020015b60608152602001906001900390816111925790505b509050600060095467ffffffffffffffff8111156111c8576111c7612857565b5b6040519080825280602002602001820160405280156111f65781602001602082028036833780820191505090505b5090506000805b60095481101561156157600061122c86838151811061121f5761121e612d92565b5b6020026020010151610483565b905060005b815181101561154c5789805190602001206007600089868151811061125957611258612d92565b5b602002602001015173ffffffffffffffffffffffffffffffffffffffff1673ffffffffffffffffffffffffffffffffffffffff16815260200190815260200160002060020160008484815181106112b3576112b2612d92565b5b602002602001015181526020019081526020016000206040516112d6919061325a565b6040518091039020148061138b575089805190602001206007600089868151811061130457611303612d92565b5b602002602001015173ffffffffffffffffffffffffffffffffffffffff1673ffffffffffffffffffffffffffffffffffffffff168152602001908152602001600020600301600084848151811061135e5761135d612d92565b5b60200260200101518152602001908152602001600020604051611381919061325a565b6040518091039020145b1561153957600760008885815181106113a7576113a6612d92565b5b602002602001015173ffffffffffffffffffffffffffffffffffffffff1673ffffffffffffffffffffffffffffffffffffffff168152602001908152602001600020600101600083838151811061140157611400612d92565b5b60200260200101518152602001908152602001600020805461142290612cea565b80601f016020809104026020016040519081016040528092919081815260200182805461144e90612cea565b801561149b5780601f106114705761010080835404028352916020019161149b565b820191906000526020600020905b81548152906001019060200180831161147e57829003601f168201915b50505050508685815181106114b3576114b2612d92565b5b60200260200101819052508683815181106114d1576114d0612d92565b5b60200260200101518585815181106114ec576114eb612d92565b5b602002602001019073ffffffffffffffffffffffffffffffffffffffff16908173ffffffffffffffffffffffffffffffffffffffff1681525050838061153190612d4a565b94505061154c565b808061154490612d4a565b915050611231565b5050808061155990612d4a565b9150506111fd565b5060008167ffffffffffffffff81111561157e5761157d612857565b5b6040519080825280602002602001820160405280156115b157816020015b606081526020019060019003908161159c5790505b50905060008267ffffffffffffffff8111156115d0576115cf612857565b5b6040519080825280602002602001820160405280156115fe5781602001602082028036833780820191505090505b50905060005b838110156116c05785818151811061161f5761161e612d92565b5b602002602001015183828151811061163a57611639612d92565b5b602002602001018190525084818151811061165857611657612d92565b5b602002602001015182828151811061167357611672612d92565b5b602002602001019073ffffffffffffffffffffffffffffffffffffffff16908173ffffffffffffffffffffffffffffffffffffffff168152505080806116b890612d4a565b915050611604565b50818197509750505050505050915091565b60608060608060606000600760008973ffffffffffffffffffffffffffffffffffffffff1673ffffffffffffffffffffffffffffffffffffffff1681526020019081526020016000206001016000888152602001908152602001600020600760008a73ffffffffffffffffffffffffffffffffffffffff1673ffffffffffffffffffffffffffffffffffffffff1681526020019081526020016000206002016000898152602001908152602001600020600760008b73ffffffffffffffffffffffffffffffffffffffff1673ffffffffffffffffffffffffffffffffffffffff16815260200190815260200160002060030160008a8152602001908152602001600020600760008c73ffffffffffffffffffffffffffffffffffffffff1673ffffffffffffffffffffffffffffffffffffffff16815260200190815260200160002060040160008b8152602001908152602001600020600760008d73ffffffffffffffffffffffffffffffffffffffff1673ffffffffffffffffffffffffffffffffffffffff16815260200190815260200160002060050160008c8152602001908152602001600020600760008e73ffffffffffffffffffffffffffffffffffffffff1673ffffffffffffffffffffffffffffffffffffffff16815260200190815260200160002060060160008d8152602001908152602001600020548580546118db90612cea565b80601f016020809104026020016040519081016040528092919081815260200182805461190790612cea565b80156119545780601f1061192957610100808354040283529160200191611954565b820191906000526020600020905b81548152906001019060200180831161193757829003601f168201915b5050505050955084805461196790612cea565b80601f016020809104026020016040519081016040528092919081815260200182805461199390612cea565b80156119e05780601f106119b5576101008083540402835291602001916119e0565b820191906000526020600020905b8154815290600101906020018083116119c357829003601f168201915b505050505094508380546119f390612cea565b80601f0160208091040260200160405190810160405280929190818152602001828054611a1f90612cea565b8015611a6c5780601f10611a4157610100808354040283529160200191611a6c565b820191906000526020600020905b815481529060010190602001808311611a4f57829003601f168201915b50505050509350828054611a7f90612cea565b80601f0160208091040260200160405190810160405280929190818152602001828054611aab90612cea565b8015611af85780601f10611acd57610100808354040283529160200191611af8565b820191906000526020600020905b815481529060010190602001808311611adb57829003601f168201915b50505050509250818054611b0b90612cea565b80601f0160208091040260200160405190810160405280929190818152602001828054611b3790612cea565b8015611b845780601f10611b5957610100808354040283529160200191611b84565b820191906000526020600020905b815481529060010190602001808311611b6757829003601f168201915b505050505091509550955095509550955095509295509295509295565b60056020528060005260406000206000915090505481565b6060600060095467ffffffffffffffff811115611bd957611bd8612857565b5b604051908082528060200260200182016040528015611c075781602001602082028036833780820191505090505b50905060005b600954811015611cb957600a6000018181548110611c2e57611c2d612d92565b5b9060005260206000200160009054906101000a900473ffffffffffffffffffffffffffffffffffffffff16828281518110611c6c57611c6b612d92565b5b602002602001019073ffffffffffffffffffffffffffffffffffffffff16908173ffffffffffffffffffffffffffffffffffffffff16815250508080611cb190612d4a565b915050611c0d565b508091505090565b600460009054906101000a900473ffffffffffffffffffffffffffffffffffffffff1681565b60018054611cf490612cea565b80601f0160208091040260200160405190810160405280929190818152602001828054611d2090612cea565b8015611d6d5780601f10611d4257610100808354040283529160200191611d6d565b820191906000526020600020905b815481529060010190602001808311611d5057829003601f168201915b505050505081565b600460009054906101000a900473ffffffffffffffffffffffffffffffffffffffff1673ffffffffffffffffffffffffffffffffffffffff163373ffffffffffffffffffffffffffffffffffffffff1603611e05576040517f08c379a0000000000000000000000000000000000000000000000000000000008152600401611dfc906132bd565b60405180910390fd5b6001600c60003373ffffffffffffffffffffffffffffffffffffffff1673ffffffffffffffffffffffffffffffffffffffff16815260200190815260200160002054611e519190612dc1565b421015611e93576040517f08c379a0000000000000000000000000000000000000000000000000000000008152600401611e8a9061334f565b60405180910390fd5b600d5460056000600460009054906101000a900473ffffffffffffffffffffffffffffffffffffffff1673ffffffffffffffffffffffffffffffffffffffff1673ffffffffffffffffffffffffffffffffffffffff168152602001908152602001600020541015611f39576040517f08c379a0000000000000000000000000000000000000000000000000000000008152600401611f30906133e1565b60405180910390fd5b60006064423344604051602001611f529392919061346a565b6040516020818303038152906040528051906020012060001c611f7591906134d6565b9050600a81101561212457600d5460056000600460009054906101000a900473ffffffffffffffffffffffffffffffffffffffff1673ffffffffffffffffffffffffffffffffffffffff1673ffffffffffffffffffffffffffffffffffffffff1681526020019081526020016000206000828254611ff39190613507565b92505081905550600d54600560003373ffffffffffffffffffffffffffffffffffffffff1673ffffffffffffffffffffffffffffffffffffffff168152602001908152602001600020600082825461204b9190612dc1565b9250508190555042600c60003373ffffffffffffffffffffffffffffffffffffffff1673ffffffffffffffffffffffffffffffffffffffff168152602001908152602001600020819055503373ffffffffffffffffffffffffffffffffffffffff16600460009054906101000a900473ffffffffffffffffffffffffffffffffffffffff1673ffffffffffffffffffffffffffffffffffffffff167fddf252ad1be2c89b69c2b068fc378daa952ba7f163c4a11628f55a4df523b3ef600d546040516121179190612631565b60405180910390a361215f565b6040517f08c379a0000000000000000000000000000000000000000000000000000000008152600401612156906135ad565b60405180910390fd5b50565b6000600460009054906101000a900473ffffffffffffffffffffffffffffffffffffffff1673ffffffffffffffffffffffffffffffffffffffff163373ffffffffffffffffffffffffffffffffffffffff16146121f4576040517f08c379a00000000000000000000000000000000000000000000000000000000081526004016121eb90613619565b60405180910390fd5b8160056000600460009054906101000a900473ffffffffffffffffffffffffffffffffffffffff1673ffffffffffffffffffffffffffffffffffffffff1673ffffffffffffffffffffffffffffffffffffffff168152602001908152602001600020541015612298576040517f08c379a000000000000000000000000000000000000000000000000000000000815260040161228f90613685565b60405180910390fd5b8160056000600460009054906101000a900473ffffffffffffffffffffffffffffffffffffffff1673ffffffffffffffffffffffffffffffffffffffff1673ffffffffffffffffffffffffffffffffffffffff16815260200190815260200160002060008282546123099190613507565b9250508190555081600560008573ffffffffffffffffffffffffffffffffffffffff1673ffffffffffffffffffffffffffffffffffffffff168152602001908152602001600020600082825461235f9190612dc1565b925050819055506001905092915050565b6000600954905090565b6006602052816000526040600020602052806000526040600020600091509150505481565b600c6020528060005260406000206000915090505481565b6040518060400160405280600073ffffffffffffffffffffffffffffffffffffffff168152602001600081525090565b6000604051905090565b600080fd5b600080fd5b600073ffffffffffffffffffffffffffffffffffffffff82169050919050565b6000612426826123fb565b9050919050565b6124368161241b565b811461244157600080fd5b50565b6000813590506124538161242d565b92915050565b60006020828403121561246f5761246e6123f1565b5b600061247d84828501612444565b91505092915050565b600081519050919050565b600082825260208201905092915050565b6000819050602082019050919050565b6000819050919050565b6124c5816124b2565b82525050565b60006124d783836124bc565b60208301905092915050565b6000602082019050919050565b60006124fb82612486565b6125058185612491565b9350612510836124a2565b8060005b8381101561254157815161252888826124cb565b9750612533836124e3565b925050600181019050612514565b5085935050505092915050565b6000602082019050818103600083015261256881846124f0565b905092915050565b600081519050919050565b600082825260208201905092915050565b60005b838110156125aa57808201518184015260208101905061258f565b60008484015250505050565b6000601f19601f8301169050919050565b60006125d282612570565b6125dc818561257b565b93506125ec81856020860161258c565b6125f5816125b6565b840191505092915050565b6000602082019050818103600083015261261a81846125c7565b905092915050565b61262b816124b2565b82525050565b60006020820190506126466000830184612622565b92915050565b600081519050919050565b600082825260208201905092915050565b6000819050602082019050919050565b600082825260208201905092915050565b600061269482612570565b61269e8185612678565b93506126ae81856020860161258c565b6126b7816125b6565b840191505092915050565b60006126ce8383612689565b905092915050565b6000602082019050919050565b60006126ee8261264c565b6126f88185612657565b93508360208202850161270a85612668565b8060005b85811015612746578484038952815161272785826126c2565b9450612732836126d6565b925060208a0199505060018101905061270e565b50829750879550505050505092915050565b600081519050919050565b600082825260208201905092915050565b6000819050602082019050919050565b61278d8161241b565b82525050565b600061279f8383612784565b60208301905092915050565b6000602082019050919050565b60006127c382612758565b6127cd8185612763565b93506127d883612774565b8060005b838110156128095781516127f08882612793565b97506127fb836127ab565b9250506001810190506127dc565b5085935050505092915050565b6000604082019050818103600083015261283081856126e3565b9050818103602083015261284481846127b8565b90509392505050565b600080fd5b600080fd5b7f4e487b7100000000000000000000000000000000000000000000000000000000600052604160045260246000fd5b61288f826125b6565b810181811067ffffffffffffffff821117156128ae576128ad612857565b5b80604052505050565b60006128c16123e7565b90506128cd8282612886565b919050565b600067ffffffffffffffff8211156128ed576128ec612857565b5b6128f6826125b6565b9050602081019050919050565b82818337600083830152505050565b6000612925612920846128d2565b6128b7565b90508281526020810184848401111561294157612940612852565b5b61294c848285612903565b509392505050565b600082601f8301126129695761296861284d565b5b8135612979848260208601612912565b91505092915050565b600080600080600060a0868803121561299e5761299d6123f1565b5b600086013567ffffffffffffffff8111156129bc576129bb6123f6565b5b6129c888828901612954565b955050602086013567ffffffffffffffff8111156129e9576129e86123f6565b5b6129f588828901612954565b945050604086013567ffffffffffffffff811115612a1657612a156123f6565b5b612a2288828901612954565b935050606086013567ffffffffffffffff811115612a4357612a426123f6565b5b612a4f88828901612954565b925050608086013567ffffffffffffffff811115612a7057612a6f6123f6565b5b612a7c88828901612954565b9150509295509295909350565b600060ff82169050919050565b612a9f81612a89565b82525050565b6000602082019050612aba6000830184612a96565b92915050565b600060208284031215612ad657612ad56123f1565b5b600082013567ffffffffffffffff811115612af457612af36123f6565b5b612b0084828501612954565b91505092915050565b612b12816124b2565b8114612b1d57600080fd5b50565b600081359050612b2f81612b09565b92915050565b60008060408385031215612b4c57612b4b6123f1565b5b6000612b5a85828601612444565b9250506020612b6b85828601612b20565b9150509250929050565b600060c0820190508181036000830152612b8f81896125c7565b90508181036020830152612ba381886125c7565b90508181036040830152612bb781876125c7565b90508181036060830152612bcb81866125c7565b90508181036080830152612bdf81856125c7565b9050612bee60a0830184612622565b979650505050505050565b60006020820190508181036000830152612c1381846127b8565b905092915050565b612c248161241b565b82525050565b6000602082019050612c3f6000830184612c1b565b92915050565b60008115159050919050565b612c5a81612c45565b82525050565b6000602082019050612c756000830184612c51565b92915050565b60008060408385031215612c9257612c916123f1565b5b6000612ca085828601612444565b9250506020612cb185828601612444565b9150509250929050565b7f4e487b7100000000000000000000000000000000000000000000000000000000600052602260045260246000fd5b60006002820490506001821680612d0257607f821691505b602082108103612d1557612d14612cbb565b5b50919050565b7f4e487b7100000000000000000000000000000000000000000000000000000000600052601160045260246000fd5b6000612d55826124b2565b91507fffffffffffffffffffffffffffffffffffffffffffffffffffffffffffffffff8203612d8757612d86612d1b565b5b600182019050919050565b7f4e487b7100000000000000000000000000000000000000000000000000000000600052603260045260246000fd5b6000612dcc826124b2565b9150612dd7836124b2565b9250828201905080821115612def57612dee612d1b565b5b92915050565b7f47616d65204e616d652069732072657175697265640000000000000000000000600082015250565b6000612e2b60158361257b565b9150612e3682612df5565b602082019050919050565b60006020820190508181036000830152612e5a81612e1e565b9050919050565b7f536572766572204e616d65206973207265717569726564000000000000000000600082015250565b6000612e9760178361257b565b9150612ea282612e61565b602082019050919050565b60006020820190508181036000830152612ec681612e8a565b9050919050565b7f436c617373204e616d6520697320726571756972656400000000000000000000600082015250565b6000612f0360168361257b565b9150612f0e82612ecd565b602082019050919050565b60006020820190508181036000830152612f3281612ef6565b9050919050565b60008190508160005260206000209050919050565b60006020601f8301049050919050565b600082821b905092915050565b600060088302612f9b7fffffffffffffffffffffffffffffffffffffffffffffffffffffffffffffffff82612f5e565b612fa58683612f5e565b95508019841693508086168417925050509392505050565b6000819050919050565b6000612fe2612fdd612fd8846124b2565b612fbd565b6124b2565b9050919050565b6000819050919050565b612ffc83612fc7565b61301061300882612fe9565b848454612f6b565b825550505050565b600090565b613025613018565b613030818484612ff3565b505050565b5b818110156130545761304960008261301d565b600181019050613036565b5050565b601f8211156130995761306a81612f39565b61307384612f4e565b81016020851015613082578190505b61309661308e85612f4e565b830182613035565b50505b505050565b600082821c905092915050565b60006130bc6000198460080261309e565b1980831691505092915050565b60006130d583836130ab565b9150826002028217905092915050565b6130ee82612570565b67ffffffffffffffff81111561310757613106612857565b5b6131118254612cea565b61311c828285613058565b600060209050601f83116001811461314f576000841561313d578287015190505b61314785826130c9565b8655506131af565b601f19841661315d86612f39565b60005b8281101561318557848901518255600182019150602085019450602081019050613160565b868310156131a2578489015161319e601f8916826130ab565b8355505b6001600288020188555050505b505050505050565b600081905092915050565b60008190508160005260206000209050919050565b600081546131e481612cea565b6131ee81866131b7565b94506001821660008114613209576001811461321e57613251565b60ff1983168652811515820286019350613251565b613227856131c2565b60005b838110156132495781548189015260018201915060208101905061322a565b838801955050505b50505092915050565b600061326682846131d7565b915081905092915050565b7f4f776e65722063616e6e6f74206d696e6520746f6b656e732e00000000000000600082015250565b60006132a760198361257b565b91506132b282613271565b602082019050919050565b600060208201905081810360008301526132d68161329a565b9050919050565b7f4d7573742077616974206174206c656173742031207365636f6e64206265666f60008201527f7265206d696e696e6720616761696e2e00000000000000000000000000000000602082015250565b600061333960308361257b565b9150613344826132dd565b604082019050919050565b600060208201905081810360008301526133688161332c565b9050919050565b7f496e73756666696369656e7420746f6b656e7320666f72206d696e696e67207260008201527f6577617264000000000000000000000000000000000000000000000000000000602082015250565b60006133cb60258361257b565b91506133d68261336f565b604082019050919050565b600060208201905081810360008301526133fa816133be565b9050919050565b6000819050919050565b61341c613417826124b2565b613401565b82525050565b60008160601b9050919050565b600061343a82613422565b9050919050565b600061344c8261342f565b9050919050565b61346461345f8261241b565b613441565b82525050565b6000613476828661340b565b6020820191506134868285613453565b601482019150613496828461340b565b602082019150819050949350505050565b7f4e487b7100000000000000000000000000000000000000000000000000000000600052601260045260246000fd5b60006134e1826124b2565b91506134ec836124b2565b9250826134fc576134fb6134a7565b5b828206905092915050565b6000613512826124b2565b915061351d836124b2565b925082820390508181111561353557613534612d1b565b5b92915050565b7f4d696e696e6720617474656d7074206661696c65642e2054727920616761696e60008201527f2e00000000000000000000000000000000000000000000000000000000000000602082015250565b600061359760218361257b565b91506135a28261353b565b604082019050919050565b600060208201905081810360008301526135c68161358a565b9050919050565b7f4f6e6c79206f776e65722063616e207472616e7366657220746f6b656e730000600082015250565b6000613603601e8361257b565b915061360e826135cd565b602082019050919050565b60006020820190508181036000830152613632816135f6565b9050919050565b7f496e73756666696369656e742062616c616e6365000000000000000000000000600082015250565b600061366f60148361257b565b915061367a82613639565b602082019050919050565b6000602082019050818103600083015261369e81613662565b905091905056fea26469706673582212206e16ba817e0534e3000f64c7952bb72b00ada4a47670f18a325433c151b45df864736f6c63430008130033",
  "immutableReferences": {},
  "source": "//SPDX-License-Identifier: MIT\r\npragma solidity ^0.8.19;\r\n\r\ncontract IdProject {\r\n    string public name = \"WhatsID\";\r\n    string public symbol = \"WID\";\r\n    uint8 public decimals = 18;\r\n    uint256 public totalSupply;\r\n    address public owner;\r\n\r\n    mapping(address => uint256) public balanceOf;\r\n    mapping(address => mapping(address => uint256)) public allowance;\r\n\r\n    struct Game {\r\n        uint[] blockId;\r\n        mapping(uint256 => string) nickname;\r\n        mapping(uint256 => string) gameName;\r\n        mapping(uint256 => string) serverName;\r\n        mapping(uint256 => string) className;\r\n        mapping(uint256 => string) remarks;\r\n        mapping(uint256 => uint) date;\r\n    }\r\n\r\n    mapping(address => Game) games;\r\n\r\n    uint256 public blockCount;\r\n\r\n    struct Set {\r\n        address[] values;\r\n        mapping(address => bool) is_in;\r\n    }\r\n\r\n    uint public userCnt;\r\n    Set userSet;\r\n\r\n    //   \r\n    mapping(address => uint256) public lastMineTime; //    \r\n    uint256 public miningReward = 1 * 10 ** 3; //      (1 WID)\r\n\r\n    constructor() {\r\n        owner = msg.sender;\r\n        totalSupply = 100000000000 * (10 ** decimals); // 1000   \r\n        balanceOf[owner] = totalSupply; //    \r\n    }\r\n\r\n    event Transfer(address indexed from, address indexed to, uint256 value);\r\n\r\n    //     :   \r\n    function transfer(\r\n        address _to,\r\n        uint256 _value\r\n    ) public returns (bool success) {\r\n        require(msg.sender == owner, \"Only owner can transfer tokens\");\r\n        require(balanceOf[owner] >= _value, \"Insufficient balance\");\r\n        balanceOf[owner] -= _value;\r\n        balanceOf[_to] += _value;\r\n        return true;\r\n    }\r\n\r\n    function add(address a) public {\r\n        if (!userSet.is_in[a]) {\r\n            userSet.values.push(a);\r\n            userSet.is_in[a] = true;\r\n            userCnt++;\r\n        }\r\n    }\r\n\r\n    function getUser() public view returns (address[] memory) {\r\n        address[] memory userList = new address[](userCnt);\r\n        for (uint i = 0; i < userCnt; i++) {\r\n            userList[i] = userSet.values[i];\r\n        }\r\n        return userList;\r\n    }\r\n\r\n    // \r\n    function insertInfo(\r\n        string memory _nickname,\r\n        string memory _gameName,\r\n        string memory _serverName,\r\n        string memory _className,\r\n        string memory _remarks\r\n    ) public {\r\n        require(bytes(_gameName).length > 0, \"Game Name is required\");\r\n        require(bytes(_serverName).length > 0, \"Server Name is required\");\r\n        require(bytes(_className).length > 0, \"Class Name is required\");\r\n\r\n        blockCount++;\r\n        add(msg.sender);\r\n\r\n        games[msg.sender].blockId.push(blockCount);\r\n        games[msg.sender].nickname[blockCount] = _nickname;\r\n        games[msg.sender].gameName[blockCount] = _gameName;\r\n        games[msg.sender].serverName[blockCount] = _serverName;\r\n        games[msg.sender].className[blockCount] = _className;\r\n        games[msg.sender].remarks[blockCount] = _remarks;\r\n        games[msg.sender].date[blockCount] = block.timestamp;\r\n    }\r\n\r\n    //    () -->  \r\n    function getIndexOf(address _address) public view returns (uint[] memory) {\r\n        return games[_address].blockId;\r\n    }\r\n\r\n    //  \r\n    function getInfo(\r\n        address _address,\r\n        uint _blockId\r\n    )\r\n        public\r\n        view\r\n        returns (\r\n            string memory,\r\n            string memory,\r\n            string memory,\r\n            string memory,\r\n            string memory,\r\n            uint\r\n        )\r\n    {\r\n        return (\r\n            games[_address].nickname[_blockId],\r\n            games[_address].gameName[_blockId],\r\n            games[_address].serverName[_blockId],\r\n            games[_address].className[_blockId],\r\n            games[_address].remarks[_blockId],\r\n            games[_address].date[_blockId]\r\n        );\r\n    }\r\n\r\n    \r\n    //  -->  .\r\n    function linearSearch(\r\n        string memory _search\r\n    ) public view returns (string[] memory, address[] memory) {\r\n        address[] memory user = getUser();\r\n\r\n        //      \r\n        string[] memory tempUsers = new string[](userCnt);\r\n        address[] memory tempAddresses = new address[](userCnt);\r\n        uint cnt = 0;\r\n\r\n        for (uint i = 0; i < userCnt; i++) {\r\n            uint[] memory blocks = getIndexOf(user[i]);\r\n            for (uint j = 0; j < blocks.length; j++) {\r\n                if (\r\n                    keccak256(bytes(games[user[i]].gameName[blocks[j]])) ==\r\n                    keccak256(bytes(_search)) ||\r\n                    keccak256(bytes(games[user[i]].serverName[blocks[j]])) ==\r\n                    keccak256(bytes(_search))\r\n                ) {\r\n                    tempUsers[cnt] = games[user[i]].nickname[blocks[j]];\r\n                    tempAddresses[cnt] = user[i];\r\n                    cnt++;\r\n                    break; //      \r\n                }\r\n            }\r\n        }\r\n\r\n        //    \r\n        string[] memory users = new string[](cnt);\r\n        address[] memory addresses = new address[](cnt);\r\n\r\n        for (uint k = 0; k < cnt; k++) {\r\n            users[k] = tempUsers[k];\r\n            addresses[k] = tempAddresses[k];\r\n        }\r\n\r\n        return (users, addresses);\r\n    }\r\n\r\n    //  --> 1.   \r\n    function getTotalUserCount() public view returns (uint) {\r\n        return userCnt;\r\n    }\r\n\r\n    //  --> 2.   \r\n    function getTotalBlockCount() public view returns (uint) {\r\n        return blockCount;\r\n    }\r\n\r\n    //  --> 3.   10\r\n    // UserBlock  \r\n    struct UserBlock {\r\n        address user;\r\n        uint lastBlockTimestamp;\r\n    }\r\n\r\n    function getRecentUser()\r\n        public\r\n        view\r\n        returns (string[] memory, address[] memory)\r\n    {\r\n        uint maxCount = 10; //  10 \r\n        address[] memory allUsers = getUser();\r\n        uint totalUsers = allUsers.length;\r\n\r\n        //       \r\n        UserBlock[] memory userBlocks = new UserBlock[](totalUsers); // UserBlock   \r\n\r\n        for (uint i = 0; i < totalUsers; i++) {\r\n            uint[] memory blocks = getIndexOf(allUsers[i]);\r\n            uint latestBlockTimestamp = 0;\r\n\r\n            for (uint j = 0; j < blocks.length; j++) {\r\n                uint blockId = blocks[j];\r\n                uint timestamp = games[allUsers[i]].date[blockId];\r\n                if (timestamp > latestBlockTimestamp) {\r\n                    latestBlockTimestamp = timestamp;\r\n                }\r\n            }\r\n\r\n            userBlocks[i] = UserBlock(allUsers[i], latestBlockTimestamp);\r\n        }\r\n\r\n        //     (  )\r\n        for (uint i = 0; i < totalUsers; i++) {\r\n            for (uint j = i + 1; j < totalUsers; j++) {\r\n                if (\r\n                    userBlocks[i].lastBlockTimestamp <\r\n                    userBlocks[j].lastBlockTimestamp\r\n                ) {\r\n                    UserBlock memory temp = userBlocks[i];\r\n                    userBlocks[i] = userBlocks[j];\r\n                    userBlocks[j] = temp;\r\n                }\r\n            }\r\n        }\r\n\r\n        //  10  \r\n        uint resultCount = totalUsers < maxCount ? totalUsers : maxCount;\r\n        string[] memory recentNicknames = new string[](resultCount);\r\n        address[] memory recentAddresses = new address[](resultCount);\r\n\r\n        for (uint i = 0; i < resultCount; i++) {\r\n            //    ID \r\n            uint lastBlockId = 0;\r\n            uint latestTimestamp = 0;\r\n\r\n            //  ID     \r\n            uint[] memory blocks = getIndexOf(userBlocks[i].user);\r\n            for (uint j = 0; j < blocks.length; j++) {\r\n                uint blockId = blocks[j];\r\n                uint timestamp = games[userBlocks[i].user].date[blockId];\r\n                if (timestamp > latestTimestamp) {\r\n                    latestTimestamp = timestamp;\r\n                    lastBlockId = blockId; //   ID \r\n                }\r\n            }\r\n\r\n            //   ID   \r\n            recentNicknames[i] = games[userBlocks[i].user].nickname[\r\n                lastBlockId\r\n            ];\r\n            recentAddresses[i] = userBlocks[i].user;\r\n        }\r\n\r\n        return (recentNicknames, recentAddresses);\r\n    }\r\n\r\n    //   :    \r\n    function mine() public {\r\n        require(msg.sender != owner, \"Owner cannot mine tokens.\"); //   \r\n        require(\r\n            block.timestamp >= lastMineTime[msg.sender] + 1,\r\n            \"Must wait at least 1 second before mining again.\" // 1 \r\n        );\r\n        require(\r\n            balanceOf[owner] >= miningReward,\r\n            \"Insufficient tokens for mining reward\"\r\n        ); //   \r\n\r\n        uint256 randomValue = uint256(\r\n            keccak256(\r\n                abi.encodePacked(block.timestamp, msg.sender, block.prevrandao)\r\n            )\r\n        ) % 100;\r\n\r\n        if (randomValue < 10) {\r\n            // 10%  \r\n            balanceOf[owner] -= miningReward; //   \r\n            balanceOf[msg.sender] += miningReward; //   \r\n            lastMineTime[msg.sender] = block.timestamp; //    \r\n            emit Transfer(owner, msg.sender, miningReward);\r\n        } else {\r\n            revert(\"Mining attempt failed. Try again.\");\r\n        }\r\n    }\r\n\r\n    //     \r\n    function getTokenBalance(address _user) public view returns (uint256) {\r\n        return balanceOf[_user];\r\n    }\r\n}\r\n\r\n",
  "sourcePath": "C:\\ljs\\project\\id\\contracts\\IdProject.sol",
  "compiler": {
    "name": "solc",
    "version": "0.8.19+commit.7dd6d404.Emscripten.clang"
  },
  "schemaVersion": "3.4.16",
  "updatedAt": "2025-03-11T01:42:38.706Z",
  "networkType": "ethereum",
  "devdoc": {
    "kind": "dev",
    "methods": {},
    "version": 1
  },
  "userdoc": {
    "kind": "user",
    "methods": {},
    "version": 1
  }
}