{
  "contractName": "IdProject",
  "abi": [
    {
      "inputs": [],
      "name": "blockCount",
      "outputs": [
        {
          "internalType": "uint256",
          "name": "",
          "type": "uint256"
        }
      ],
      "stateMutability": "view",
      "type": "function",
      "constant": true
    },
    {
      "inputs": [
        {
          "internalType": "address",
          "name": "",
          "type": "address"
        }
      ],
      "name": "games",
      "outputs": [
        {
          "internalType": "uint256",
          "name": "id",
          "type": "uint256"
        },
        {
          "internalType": "string",
          "name": "gameName",
          "type": "string"
        },
        {
          "internalType": "string",
          "name": "serverName",
          "type": "string"
        },
        {
          "internalType": "string",
          "name": "className",
          "type": "string"
        },
        {
          "internalType": "string",
          "name": "remarks",
          "type": "string"
        }
      ],
      "stateMutability": "view",
      "type": "function",
      "constant": true
    },
    {
      "inputs": [
        {
          "internalType": "string",
          "name": "_gameName",
          "type": "string"
        },
        {
          "internalType": "string",
          "name": "_serverName",
          "type": "string"
        },
        {
          "internalType": "string",
          "name": "_className",
          "type": "string"
        },
        {
          "internalType": "string",
          "name": "_remarks",
          "type": "string"
        }
      ],
      "name": "insertInfo",
      "outputs": [],
      "stateMutability": "nonpayable",
      "type": "function"
    },
    {
      "inputs": [],
      "name": "getInfo",
      "outputs": [
        {
          "internalType": "uint256",
          "name": "",
          "type": "uint256"
        },
        {
          "internalType": "string",
          "name": "",
          "type": "string"
        },
        {
          "internalType": "string",
          "name": "",
          "type": "string"
        },
        {
          "internalType": "string",
          "name": "",
          "type": "string"
        },
        {
          "internalType": "string",
          "name": "",
          "type": "string"
        }
      ],
      "stateMutability": "view",
      "type": "function",
      "constant": true
    }
  ],
  "bytecode": "0x608060405234801561001057600080fd5b5061112f806100206000396000f3fe608060405234801561001057600080fd5b506004361061004c5760003560e01c806307225b4d146100515780635a9b0b891461006f5780637288436b1461009157806379131a19146100ad575b600080fd5b6100596100e1565b604051610066919061089b565b60405180910390f35b6100776100e7565b604051610088959493929190610946565b60405180910390f35b6100ab60048036038101906100a69190610afe565b610476565b005b6100c760048036038101906100c29190610c33565b61062c565b6040516100d8959493929190610946565b60405180910390f35b60015481565b60006060806060806000803373ffffffffffffffffffffffffffffffffffffffff1673ffffffffffffffffffffffffffffffffffffffff168152602001908152602001600020600001546000803373ffffffffffffffffffffffffffffffffffffffff1673ffffffffffffffffffffffffffffffffffffffff1681526020019081526020016000206001016000803373ffffffffffffffffffffffffffffffffffffffff1673ffffffffffffffffffffffffffffffffffffffff1681526020019081526020016000206002016000803373ffffffffffffffffffffffffffffffffffffffff1673ffffffffffffffffffffffffffffffffffffffff1681526020019081526020016000206003016000803373ffffffffffffffffffffffffffffffffffffffff1673ffffffffffffffffffffffffffffffffffffffff16815260200190815260200160002060040183805461024190610c8f565b80601f016020809104026020016040519081016040528092919081815260200182805461026d90610c8f565b80156102ba5780601f1061028f576101008083540402835291602001916102ba565b820191906000526020600020905b81548152906001019060200180831161029d57829003601f168201915b505050505093508280546102cd90610c8f565b80601f01602080910402602001604051908101604052809291908181526020018280546102f990610c8f565b80156103465780601f1061031b57610100808354040283529160200191610346565b820191906000526020600020905b81548152906001019060200180831161032957829003601f168201915b5050505050925081805461035990610c8f565b80601f016020809104026020016040519081016040528092919081815260200182805461038590610c8f565b80156103d25780601f106103a7576101008083540402835291602001916103d2565b820191906000526020600020905b8154815290600101906020018083116103b557829003601f168201915b505050505091508080546103e590610c8f565b80601f016020809104026020016040519081016040528092919081815260200182805461041190610c8f565b801561045e5780601f106104335761010080835404028352916020019161045e565b820191906000526020600020905b81548152906001019060200180831161044157829003601f168201915b50505050509050945094509450945094509091929394565b60008451116104ba576040517f08c379a00000000000000000000000000000000000000000000000000000000081526004016104b190610d0c565b60405180910390fd5b60008351116104fe576040517f08c379a00000000000000000000000000000000000000000000000000000000081526004016104f590610d78565b60405180910390fd5b6000825111610542576040517f08c379a000000000000000000000000000000000000000000000000000000000815260040161053990610de4565b60405180910390fd5b6001600081548092919061055590610e33565b91905055506040518060a001604052806001548152602001858152602001848152602001838152602001828152506000803373ffffffffffffffffffffffffffffffffffffffff1673ffffffffffffffffffffffffffffffffffffffff1681526020019081526020016000206000820151816000015560208201518160010190816105e09190611027565b5060408201518160020190816105f69190611027565b50606082015181600301908161060c9190611027565b5060808201518160040190816106229190611027565b5090505050505050565b600060205280600052604060002060009150905080600001549080600101805461065590610c8f565b80601f016020809104026020016040519081016040528092919081815260200182805461068190610c8f565b80156106ce5780601f106106a3576101008083540402835291602001916106ce565b820191906000526020600020905b8154815290600101906020018083116106b157829003601f168201915b5050505050908060020180546106e390610c8f565b80601f016020809104026020016040519081016040528092919081815260200182805461070f90610c8f565b801561075c5780601f106107315761010080835404028352916020019161075c565b820191906000526020600020905b81548152906001019060200180831161073f57829003601f168201915b50505050509080600301805461077190610c8f565b80601f016020809104026020016040519081016040528092919081815260200182805461079d90610c8f565b80156107ea5780601f106107bf576101008083540402835291602001916107ea565b820191906000526020600020905b8154815290600101906020018083116107cd57829003601f168201915b5050505050908060040180546107ff90610c8f565b80601f016020809104026020016040519081016040528092919081815260200182805461082b90610c8f565b80156108785780601f1061084d57610100808354040283529160200191610878565b820191906000526020600020905b81548152906001019060200180831161085b57829003601f168201915b5050505050905085565b6000819050919050565b61089581610882565b82525050565b60006020820190506108b0600083018461088c565b92915050565b600081519050919050565b600082825260208201905092915050565b60005b838110156108f05780820151818401526020810190506108d5565b60008484015250505050565b6000601f19601f8301169050919050565b6000610918826108b6565b61092281856108c1565b93506109328185602086016108d2565b61093b816108fc565b840191505092915050565b600060a08201905061095b600083018861088c565b818103602083015261096d818761090d565b90508181036040830152610981818661090d565b90508181036060830152610995818561090d565b905081810360808301526109a9818461090d565b90509695505050505050565b6000604051905090565b600080fd5b600080fd5b600080fd5b600080fd5b7f4e487b7100000000000000000000000000000000000000000000000000000000600052604160045260246000fd5b610a0b826108fc565b810181811067ffffffffffffffff82111715610a2a57610a296109d3565b5b80604052505050565b6000610a3d6109b5565b9050610a498282610a02565b919050565b600067ffffffffffffffff821115610a6957610a686109d3565b5b610a72826108fc565b9050602081019050919050565b82818337600083830152505050565b6000610aa1610a9c84610a4e565b610a33565b905082815260208101848484011115610abd57610abc6109ce565b5b610ac8848285610a7f565b509392505050565b600082601f830112610ae557610ae46109c9565b5b8135610af5848260208601610a8e565b91505092915050565b60008060008060808587031215610b1857610b176109bf565b5b600085013567ffffffffffffffff811115610b3657610b356109c4565b5b610b4287828801610ad0565b945050602085013567ffffffffffffffff811115610b6357610b626109c4565b5b610b6f87828801610ad0565b935050604085013567ffffffffffffffff811115610b9057610b8f6109c4565b5b610b9c87828801610ad0565b925050606085013567ffffffffffffffff811115610bbd57610bbc6109c4565b5b610bc987828801610ad0565b91505092959194509250565b600073ffffffffffffffffffffffffffffffffffffffff82169050919050565b6000610c0082610bd5565b9050919050565b610c1081610bf5565b8114610c1b57600080fd5b50565b600081359050610c2d81610c07565b92915050565b600060208284031215610c4957610c486109bf565b5b6000610c5784828501610c1e565b91505092915050565b7f4e487b7100000000000000000000000000000000000000000000000000000000600052602260045260246000fd5b60006002820490506001821680610ca757607f821691505b602082108103610cba57610cb9610c60565b5b50919050565b7f47616d65204e616d652069732072657175697265640000000000000000000000600082015250565b6000610cf66015836108c1565b9150610d0182610cc0565b602082019050919050565b60006020820190508181036000830152610d2581610ce9565b9050919050565b7f536572766572204e616d65206973207265717569726564000000000000000000600082015250565b6000610d626017836108c1565b9150610d6d82610d2c565b602082019050919050565b60006020820190508181036000830152610d9181610d55565b9050919050565b7f436c617373204e616d6520697320726571756972656400000000000000000000600082015250565b6000610dce6016836108c1565b9150610dd982610d98565b602082019050919050565b60006020820190508181036000830152610dfd81610dc1565b9050919050565b7f4e487b7100000000000000000000000000000000000000000000000000000000600052601160045260246000fd5b6000610e3e82610882565b91507fffffffffffffffffffffffffffffffffffffffffffffffffffffffffffffffff8203610e7057610e6f610e04565b5b600182019050919050565b60008190508160005260206000209050919050565b60006020601f8301049050919050565b600082821b905092915050565b600060088302610edd7fffffffffffffffffffffffffffffffffffffffffffffffffffffffffffffffff82610ea0565b610ee78683610ea0565b95508019841693508086168417925050509392505050565b6000819050919050565b6000610f24610f1f610f1a84610882565b610eff565b610882565b9050919050565b6000819050919050565b610f3e83610f09565b610f52610f4a82610f2b565b848454610ead565b825550505050565b600090565b610f67610f5a565b610f72818484610f35565b505050565b5b81811015610f9657610f8b600082610f5f565b600181019050610f78565b5050565b601f821115610fdb57610fac81610e7b565b610fb584610e90565b81016020851015610fc4578190505b610fd8610fd085610e90565b830182610f77565b50505b505050565b600082821c905092915050565b6000610ffe60001984600802610fe0565b1980831691505092915050565b60006110178383610fed565b9150826002028217905092915050565b611030826108b6565b67ffffffffffffffff811115611049576110486109d3565b5b6110538254610c8f565b61105e828285610f9a565b600060209050601f831160018114611091576000841561107f578287015190505b611089858261100b565b8655506110f1565b601f19841661109f86610e7b565b60005b828110156110c7578489015182556001820191506020850194506020810190506110a2565b868310156110e457848901516110e0601f891682610fed565b8355505b6001600288020188555050505b50505050505056fea2646970667358221220d4cc4d06a23158a097fdbab8fd7a52342ae3756717fd9a9a79b1b1733704470864736f6c63430008130033",
  "immutableReferences": {},
  "source": "//SPDX-License-Identifier: MIT\r\npragma solidity ^0.8.0;\r\n\r\ncontract IdProject{\r\n    \r\n    struct Game{\r\n        uint id;\r\n        string gameName;\r\n        string serverName;\r\n        string className;      \r\n        string remarks;\r\n    }\r\n\r\n    mapping(address => Game) public games;\r\n   \r\n    uint public blockCount;\r\n\r\n    function insertInfo(string memory _gameName, string memory _serverName, string memory _className, string memory _remarks) public {\r\n       \r\n        require(bytes(_gameName).length > 0, \"Game Name is required\");\r\n        require(bytes(_serverName).length > 0, \"Server Name is required\");\r\n        require(bytes(_className).length > 0, \"Class Name is required\");\r\n\r\n        blockCount++;\r\n        games[msg.sender] = Game(blockCount, _gameName, _serverName, _className, _remarks);\r\n       \r\n    }\r\n\r\n    function getInfo() public view returns(uint, string memory, string memory, string memory, string memory){\r\n        return (games[msg.sender].id, games[msg.sender].gameName, games[msg.sender].serverName, games[msg.sender].className, games[msg.sender].remarks);\r\n    }\r\n\r\n}\r\n",
  "sourcePath": "C:\\ljs\\project\\id\\contracts\\IdProject.sol",
  "compiler": {
    "name": "solc",
    "version": "0.8.19+commit.7dd6d404.Emscripten.clang"
  },
  "schemaVersion": "3.4.16",
  "updatedAt": "2025-01-08T05:23:30.099Z",
  "networkType": "ethereum",
  "devdoc": {
    "kind": "dev",
    "methods": {},
    "version": 1
  },
  "userdoc": {
    "kind": "user",
    "methods": {},
    "version": 1
  }
}