{
  "contractName": "IdProject",
  "abi": [
    {
      "inputs": [],
      "name": "blockCount",
      "outputs": [
        {
          "internalType": "uint256",
          "name": "",
          "type": "uint256"
        }
      ],
      "stateMutability": "view",
      "type": "function",
      "constant": true
    },
    {
      "inputs": [],
      "name": "userCnt",
      "outputs": [
        {
          "internalType": "uint256",
          "name": "",
          "type": "uint256"
        }
      ],
      "stateMutability": "view",
      "type": "function",
      "constant": true
    },
    {
      "inputs": [
        {
          "internalType": "address",
          "name": "a",
          "type": "address"
        }
      ],
      "name": "add",
      "outputs": [],
      "stateMutability": "nonpayable",
      "type": "function"
    },
    {
      "inputs": [],
      "name": "getUser",
      "outputs": [
        {
          "internalType": "address[]",
          "name": "",
          "type": "address[]"
        }
      ],
      "stateMutability": "view",
      "type": "function",
      "constant": true
    },
    {
      "inputs": [
        {
          "internalType": "string",
          "name": "_nickName",
          "type": "string"
        },
        {
          "internalType": "string",
          "name": "_gameName",
          "type": "string"
        },
        {
          "internalType": "string",
          "name": "_serverName",
          "type": "string"
        },
        {
          "internalType": "string",
          "name": "_className",
          "type": "string"
        },
        {
          "internalType": "string",
          "name": "_remarks",
          "type": "string"
        }
      ],
      "name": "insertInfo",
      "outputs": [],
      "stateMutability": "nonpayable",
      "type": "function"
    },
    {
      "inputs": [
        {
          "internalType": "address",
          "name": "_address",
          "type": "address"
        }
      ],
      "name": "getIndexOf",
      "outputs": [
        {
          "internalType": "uint256[]",
          "name": "",
          "type": "uint256[]"
        }
      ],
      "stateMutability": "view",
      "type": "function",
      "constant": true
    },
    {
      "inputs": [
        {
          "internalType": "address",
          "name": "_address",
          "type": "address"
        },
        {
          "internalType": "uint256",
          "name": "_blockId",
          "type": "uint256"
        }
      ],
      "name": "getInfo",
      "outputs": [
        {
          "internalType": "string",
          "name": "",
          "type": "string"
        },
        {
          "internalType": "string",
          "name": "",
          "type": "string"
        },
        {
          "internalType": "string",
          "name": "",
          "type": "string"
        },
        {
          "internalType": "string",
          "name": "",
          "type": "string"
        },
        {
          "internalType": "string",
          "name": "",
          "type": "string"
        },
        {
          "internalType": "uint256",
          "name": "",
          "type": "uint256"
        }
      ],
      "stateMutability": "view",
      "type": "function",
      "constant": true
    },
    {
      "inputs": [
        {
          "internalType": "string",
          "name": "_search",
          "type": "string"
        }
      ],
      "name": "linearSearch",
      "outputs": [
        {
          "internalType": "string[]",
          "name": "",
          "type": "string[]"
        },
        {
          "internalType": "address[]",
          "name": "",
          "type": "address[]"
        }
      ],
      "stateMutability": "view",
      "type": "function",
      "constant": true
    }
  ],
  "bytecode": "0x608060405234801561001057600080fd5b50611fc9806100206000396000f3fe608060405234801561001057600080fd5b50600436106100885760003560e01c806360407c8d1161005b57806360407c8d14610113578063655f478b146101315780636a91e7bc14610162578063832880e71461019757610088565b8063017df5221461008d57806307225b4d146100bd5780630a3b0a4f146100db57806325bc155b146100f7575b600080fd5b6100a760048036038101906100a291906112a8565b6101b5565b6040516100b4919061139d565b60405180910390f35b6100c561024e565b6040516100d291906113ce565b60405180910390f35b6100f560048036038101906100f091906112a8565b610254565b005b610111600480360381019061010c919061152f565b610385565b005b61011b610713565b60405161012891906113ce565b60405180910390f35b61014b60048036038101906101469190611636565b610719565b60405161015992919061187e565b60405180910390f35b61017c600480360381019061017791906118e1565b610c76565b60405161018e9695949392919061196b565b60405180910390f35b61019f61112e565b6040516101ac91906119ef565b60405180910390f35b60606000808373ffffffffffffffffffffffffffffffffffffffff1673ffffffffffffffffffffffffffffffffffffffff16815260200190815260200160002060000180548060200260200160405190810160405280929190818152602001828054801561024257602002820191906000526020600020905b81548152602001906001019080831161022e575b50505050509050919050565b60015481565b600360010160008273ffffffffffffffffffffffffffffffffffffffff1673ffffffffffffffffffffffffffffffffffffffff16815260200190815260200160002060009054906101000a900460ff16610382576003600001819080600181540180825580915050600190039060005260206000200160009091909190916101000a81548173ffffffffffffffffffffffffffffffffffffffff021916908373ffffffffffffffffffffffffffffffffffffffff1602179055506001600360010160008373ffffffffffffffffffffffffffffffffffffffff1673ffffffffffffffffffffffffffffffffffffffff16815260200190815260200160002060006101000a81548160ff0219169083151502179055506002600081548092919061037c90611a40565b91905055505b50565b60008451116103c9576040517f08c379a00000000000000000000000000000000000000000000000000000000081526004016103c090611ad4565b60405180910390fd5b600083511161040d576040517f08c379a000000000000000000000000000000000000000000000000000000000815260040161040490611b40565b60405180910390fd5b6000825111610451576040517f08c379a000000000000000000000000000000000000000000000000000000000815260040161044890611bac565b60405180910390fd5b6001600081548092919061046490611a40565b919050555061047233610254565b6000803373ffffffffffffffffffffffffffffffffffffffff1673ffffffffffffffffffffffffffffffffffffffff1681526020019081526020016000206000016001549080600181540180825580915050600190039060005260206000200160009091909190915055846000803373ffffffffffffffffffffffffffffffffffffffff1673ffffffffffffffffffffffffffffffffffffffff168152602001908152602001600020600101908161052a9190611dd8565b50836000803373ffffffffffffffffffffffffffffffffffffffff1673ffffffffffffffffffffffffffffffffffffffff16815260200190815260200160002060030160006001548152602001908152602001600020908161058c9190611dd8565b50826000803373ffffffffffffffffffffffffffffffffffffffff1673ffffffffffffffffffffffffffffffffffffffff1681526020019081526020016000206004016000600154815260200190815260200160002090816105ee9190611dd8565b50816000803373ffffffffffffffffffffffffffffffffffffffff1673ffffffffffffffffffffffffffffffffffffffff1681526020019081526020016000206005016000600154815260200190815260200160002090816106509190611dd8565b50806000803373ffffffffffffffffffffffffffffffffffffffff1673ffffffffffffffffffffffffffffffffffffffff1681526020019081526020016000206006016000600154815260200190815260200160002090816106b29190611dd8565b50426000803373ffffffffffffffffffffffffffffffffffffffff1673ffffffffffffffffffffffffffffffffffffffff16815260200190815260200160002060020160006001548152602001908152602001600020819055505050505050565b60025481565b60608060008061072761112e565b9050600060025467ffffffffffffffff81111561074757610746611404565b5b60405190808252806020026020018201604052801561077a57816020015b60608152602001906001900390816107655790505b509050600060025467ffffffffffffffff81111561079b5761079a611404565b5b6040519080825280602002602001820160405280156107c95781602001602082028036833780820191505090505b50905060005b600254811015610b055760006107fe8583815181106107f1576107f0611eaa565b5b60200260200101516101b5565b905060005b8151811015610af057898051906020012060008088868151811061082a57610829611eaa565b5b602002602001015173ffffffffffffffffffffffffffffffffffffffff1673ffffffffffffffffffffffffffffffffffffffff168152602001908152602001600020600301600084848151811061088457610883611eaa565b5b602002602001015181526020019081526020016000206040516108a79190611f7c565b6040518091039020148061095b575089805190602001206000808886815181106108d4576108d3611eaa565b5b602002602001015173ffffffffffffffffffffffffffffffffffffffff1673ffffffffffffffffffffffffffffffffffffffff168152602001908152602001600020600401600084848151811061092e5761092d611eaa565b5b602002602001015181526020019081526020016000206040516109519190611f7c565b6040518091039020145b15610add5760008087858151811061097657610975611eaa565b5b602002602001015173ffffffffffffffffffffffffffffffffffffffff1673ffffffffffffffffffffffffffffffffffffffff16815260200190815260200160002060010180546109c690611bfb565b80601f01602080910402602001604051908101604052809291908181526020018280546109f290611bfb565b8015610a3f5780601f10610a1457610100808354040283529160200191610a3f565b820191906000526020600020905b815481529060010190602001808311610a2257829003601f168201915b5050505050858881518110610a5757610a56611eaa565b5b6020026020010181905250858381518110610a7557610a74611eaa565b5b6020026020010151848881518110610a9057610a8f611eaa565b5b602002602001019073ffffffffffffffffffffffffffffffffffffffff16908173ffffffffffffffffffffffffffffffffffffffff16815250508680610ad590611a40565b975050610af0565b8080610ae890611a40565b915050610803565b50508080610afd90611a40565b9150506107cf565b5060008467ffffffffffffffff811115610b2257610b21611404565b5b604051908082528060200260200182016040528015610b5557816020015b6060815260200190600190039081610b405790505b50905060008567ffffffffffffffff811115610b7457610b73611404565b5b604051908082528060200260200182016040528015610ba25781602001602082028036833780820191505090505b50905060005b86811015610c6457848181518110610bc357610bc2611eaa565b5b6020026020010151838281518110610bde57610bdd611eaa565b5b6020026020010181905250838181518110610bfc57610bfb611eaa565b5b6020026020010151828281518110610c1757610c16611eaa565b5b602002602001019073ffffffffffffffffffffffffffffffffffffffff16908173ffffffffffffffffffffffffffffffffffffffff16815250508080610c5c90611a40565b915050610ba8565b50818197509750505050505050915091565b606080606080606060008060008973ffffffffffffffffffffffffffffffffffffffff1673ffffffffffffffffffffffffffffffffffffffff1681526020019081526020016000206001016000808a73ffffffffffffffffffffffffffffffffffffffff1673ffffffffffffffffffffffffffffffffffffffff16815260200190815260200160002060030160008981526020019081526020016000206000808b73ffffffffffffffffffffffffffffffffffffffff1673ffffffffffffffffffffffffffffffffffffffff16815260200190815260200160002060040160008a81526020019081526020016000206000808c73ffffffffffffffffffffffffffffffffffffffff1673ffffffffffffffffffffffffffffffffffffffff16815260200190815260200160002060050160008b81526020019081526020016000206000808d73ffffffffffffffffffffffffffffffffffffffff1673ffffffffffffffffffffffffffffffffffffffff16815260200190815260200160002060060160008c81526020019081526020016000206000808e73ffffffffffffffffffffffffffffffffffffffff1673ffffffffffffffffffffffffffffffffffffffff16815260200190815260200160002060020160008d815260200190815260200160002054858054610e6890611bfb565b80601f0160208091040260200160405190810160405280929190818152602001828054610e9490611bfb565b8015610ee15780601f10610eb657610100808354040283529160200191610ee1565b820191906000526020600020905b815481529060010190602001808311610ec457829003601f168201915b50505050509550848054610ef490611bfb565b80601f0160208091040260200160405190810160405280929190818152602001828054610f2090611bfb565b8015610f6d5780601f10610f4257610100808354040283529160200191610f6d565b820191906000526020600020905b815481529060010190602001808311610f5057829003601f168201915b50505050509450838054610f8090611bfb565b80601f0160208091040260200160405190810160405280929190818152602001828054610fac90611bfb565b8015610ff95780601f10610fce57610100808354040283529160200191610ff9565b820191906000526020600020905b815481529060010190602001808311610fdc57829003601f168201915b5050505050935082805461100c90611bfb565b80601f016020809104026020016040519081016040528092919081815260200182805461103890611bfb565b80156110855780601f1061105a57610100808354040283529160200191611085565b820191906000526020600020905b81548152906001019060200180831161106857829003601f168201915b5050505050925081805461109890611bfb565b80601f01602080910402602001604051908101604052809291908181526020018280546110c490611bfb565b80156111115780601f106110e657610100808354040283529160200191611111565b820191906000526020600020905b8154815290600101906020018083116110f457829003601f168201915b505050505091509550955095509550955095509295509295509295565b6060600060025467ffffffffffffffff81111561114e5761114d611404565b5b60405190808252806020026020018201604052801561117c5781602001602082028036833780820191505090505b50905060005b60025481101561122e57600360000181815481106111a3576111a2611eaa565b5b9060005260206000200160009054906101000a900473ffffffffffffffffffffffffffffffffffffffff168282815181106111e1576111e0611eaa565b5b602002602001019073ffffffffffffffffffffffffffffffffffffffff16908173ffffffffffffffffffffffffffffffffffffffff1681525050808061122690611a40565b915050611182565b508091505090565b6000604051905090565b600080fd5b600080fd5b600073ffffffffffffffffffffffffffffffffffffffff82169050919050565b60006112758261124a565b9050919050565b6112858161126a565b811461129057600080fd5b50565b6000813590506112a28161127c565b92915050565b6000602082840312156112be576112bd611240565b5b60006112cc84828501611293565b91505092915050565b600081519050919050565b600082825260208201905092915050565b6000819050602082019050919050565b6000819050919050565b61131481611301565b82525050565b6000611326838361130b565b60208301905092915050565b6000602082019050919050565b600061134a826112d5565b61135481856112e0565b935061135f836112f1565b8060005b83811015611390578151611377888261131a565b975061138283611332565b925050600181019050611363565b5085935050505092915050565b600060208201905081810360008301526113b7818461133f565b905092915050565b6113c881611301565b82525050565b60006020820190506113e360008301846113bf565b92915050565b600080fd5b600080fd5b6000601f19601f8301169050919050565b7f4e487b7100000000000000000000000000000000000000000000000000000000600052604160045260246000fd5b61143c826113f3565b810181811067ffffffffffffffff8211171561145b5761145a611404565b5b80604052505050565b600061146e611236565b905061147a8282611433565b919050565b600067ffffffffffffffff82111561149a57611499611404565b5b6114a3826113f3565b9050602081019050919050565b82818337600083830152505050565b60006114d26114cd8461147f565b611464565b9050828152602081018484840111156114ee576114ed6113ee565b5b6114f98482856114b0565b509392505050565b600082601f830112611516576115156113e9565b5b81356115268482602086016114bf565b91505092915050565b600080600080600060a0868803121561154b5761154a611240565b5b600086013567ffffffffffffffff81111561156957611568611245565b5b61157588828901611501565b955050602086013567ffffffffffffffff81111561159657611595611245565b5b6115a288828901611501565b945050604086013567ffffffffffffffff8111156115c3576115c2611245565b5b6115cf88828901611501565b935050606086013567ffffffffffffffff8111156115f0576115ef611245565b5b6115fc88828901611501565b925050608086013567ffffffffffffffff81111561161d5761161c611245565b5b61162988828901611501565b9150509295509295909350565b60006020828403121561164c5761164b611240565b5b600082013567ffffffffffffffff81111561166a57611669611245565b5b61167684828501611501565b91505092915050565b600081519050919050565b600082825260208201905092915050565b6000819050602082019050919050565b600081519050919050565b600082825260208201905092915050565b60005b838110156116e55780820151818401526020810190506116ca565b60008484015250505050565b60006116fc826116ab565b61170681856116b6565b93506117168185602086016116c7565b61171f816113f3565b840191505092915050565b600061173683836116f1565b905092915050565b6000602082019050919050565b60006117568261167f565b611760818561168a565b9350836020820285016117728561169b565b8060005b858110156117ae578484038952815161178f858261172a565b945061179a8361173e565b925060208a01995050600181019050611776565b50829750879550505050505092915050565b600081519050919050565b600082825260208201905092915050565b6000819050602082019050919050565b6117f58161126a565b82525050565b600061180783836117ec565b60208301905092915050565b6000602082019050919050565b600061182b826117c0565b61183581856117cb565b9350611840836117dc565b8060005b8381101561187157815161185888826117fb565b975061186383611813565b925050600181019050611844565b5085935050505092915050565b60006040820190508181036000830152611898818561174b565b905081810360208301526118ac8184611820565b90509392505050565b6118be81611301565b81146118c957600080fd5b50565b6000813590506118db816118b5565b92915050565b600080604083850312156118f8576118f7611240565b5b600061190685828601611293565b9250506020611917858286016118cc565b9150509250929050565b600082825260208201905092915050565b600061193d826116ab565b6119478185611921565b93506119578185602086016116c7565b611960816113f3565b840191505092915050565b600060c08201905081810360008301526119858189611932565b905081810360208301526119998188611932565b905081810360408301526119ad8187611932565b905081810360608301526119c18186611932565b905081810360808301526119d58185611932565b90506119e460a08301846113bf565b979650505050505050565b60006020820190508181036000830152611a098184611820565b905092915050565b7f4e487b7100000000000000000000000000000000000000000000000000000000600052601160045260246000fd5b6000611a4b82611301565b91507fffffffffffffffffffffffffffffffffffffffffffffffffffffffffffffffff8203611a7d57611a7c611a11565b5b600182019050919050565b7f47616d65204e616d652069732072657175697265640000000000000000000000600082015250565b6000611abe601583611921565b9150611ac982611a88565b602082019050919050565b60006020820190508181036000830152611aed81611ab1565b9050919050565b7f536572766572204e616d65206973207265717569726564000000000000000000600082015250565b6000611b2a601783611921565b9150611b3582611af4565b602082019050919050565b60006020820190508181036000830152611b5981611b1d565b9050919050565b7f436c617373204e616d6520697320726571756972656400000000000000000000600082015250565b6000611b96601683611921565b9150611ba182611b60565b602082019050919050565b60006020820190508181036000830152611bc581611b89565b9050919050565b7f4e487b7100000000000000000000000000000000000000000000000000000000600052602260045260246000fd5b60006002820490506001821680611c1357607f821691505b602082108103611c2657611c25611bcc565b5b50919050565b60008190508160005260206000209050919050565b60006020601f8301049050919050565b600082821b905092915050565b600060088302611c8e7fffffffffffffffffffffffffffffffffffffffffffffffffffffffffffffffff82611c51565b611c988683611c51565b95508019841693508086168417925050509392505050565b6000819050919050565b6000611cd5611cd0611ccb84611301565b611cb0565b611301565b9050919050565b6000819050919050565b611cef83611cba565b611d03611cfb82611cdc565b848454611c5e565b825550505050565b600090565b611d18611d0b565b611d23818484611ce6565b505050565b5b81811015611d4757611d3c600082611d10565b600181019050611d29565b5050565b601f821115611d8c57611d5d81611c2c565b611d6684611c41565b81016020851015611d75578190505b611d89611d8185611c41565b830182611d28565b50505b505050565b600082821c905092915050565b6000611daf60001984600802611d91565b1980831691505092915050565b6000611dc88383611d9e565b9150826002028217905092915050565b611de1826116ab565b67ffffffffffffffff811115611dfa57611df9611404565b5b611e048254611bfb565b611e0f828285611d4b565b600060209050601f831160018114611e425760008415611e30578287015190505b611e3a8582611dbc565b865550611ea2565b601f198416611e5086611c2c565b60005b82811015611e7857848901518255600182019150602085019450602081019050611e53565b86831015611e955784890151611e91601f891682611d9e565b8355505b6001600288020188555050505b505050505050565b7f4e487b7100000000000000000000000000000000000000000000000000000000600052603260045260246000fd5b600081905092915050565b60008190508160005260206000209050919050565b60008154611f0681611bfb565b611f108186611ed9565b94506001821660008114611f2b5760018114611f4057611f73565b60ff1983168652811515820286019350611f73565b611f4985611ee4565b60005b83811015611f6b57815481890152600182019150602081019050611f4c565b838801955050505b50505092915050565b6000611f888284611ef9565b91508190509291505056fea264697066735822122098adbcec6a1caca871a0a534b5054b41ce0bf2581ce4f1a02aa6fdd6147ae22b64736f6c63430008130033",
  "immutableReferences": {},
  "source": "//SPDX-License-Identifier: MIT\r\npragma solidity ^0.8.0;\r\n\r\ncontract IdProject {\r\n    struct Game {\r\n        uint[] blockId;\r\n        string nickName;\r\n        mapping(uint256 => uint) date;\r\n        mapping(uint256 => string) gameName;\r\n        mapping(uint256 => string) serverName;\r\n        mapping(uint256 => string) className;\r\n        mapping(uint256 => string) remarks;\r\n    }\r\n\r\n    mapping(address => Game) private games;\r\n\r\n    uint256 public blockCount;\r\n\r\n    //** **\r\n    struct Set {\r\n        address[] values;\r\n        mapping (address => bool) is_in;\r\n    }\r\n\r\n    uint public userCnt;\r\n    Set userSet;\r\n\r\n    function add(address a) public {\r\n        if (!userSet.is_in[a]) {\r\n            userSet.values.push(a);\r\n            userSet.is_in[a] = true;\r\n            userCnt++;\r\n        }\r\n    }\r\n\r\n    function getUser() public view returns(address[]  memory){\r\n        address[] memory userList = new address[](userCnt);\r\n        for(uint i=0;i<userCnt;i++){\r\n            userList[i]=userSet.values[i];\r\n        }\r\n        return userList;\r\n    }\r\n\r\n\r\n    //** **\r\n    //  \r\n    function insertInfo(string memory _nickName, string memory _gameName, string memory _serverName, string memory _className, string memory _remarks) public {\r\n        require(bytes(_gameName).length > 0, \"Game Name is required\");\r\n        require(bytes(_serverName).length > 0, \"Server Name is required\");\r\n        require(bytes(_className).length > 0, \"Class Name is required\");\r\n   \r\n        blockCount++;\r\n        add(msg.sender);\r\n\r\n        games[msg.sender].blockId.push(blockCount);\r\n        games[msg.sender].nickName = _nickName;\r\n        games[msg.sender].gameName[blockCount] = _gameName;\r\n        games[msg.sender].serverName[blockCount] = _serverName;\r\n        games[msg.sender].className[blockCount] = _className;\r\n        games[msg.sender].remarks[blockCount] = _remarks;\r\n        games[msg.sender].date[blockCount] = block.timestamp;\r\n\r\n    }\r\n\r\n    //    \r\n    function getIndexOf(address _address) public view returns(uint[] memory){\r\n        return games[_address].blockId;\r\n    }\r\n\r\n    //   \r\n    function getInfo(address _address, uint _blockId) public view returns (string memory,string memory, string memory, string memory,string memory, uint) {\r\n        return (\r\n            games[_address].nickName,\r\n            games[_address].gameName[_blockId],\r\n            games[_address].serverName[_blockId],\r\n            games[_address].className[_blockId],\r\n            games[_address].remarks[_blockId],\r\n            games[_address].date[_blockId]\r\n        );\r\n    }\r\n    \r\n    //** **\r\n    // \r\n    function linearSearch(string memory _search) public view returns(string[] memory, address[] memory){\r\n        uint resultCnt;\r\n        address[] memory user = getUser();\r\n        string[] memory users = new string[](userCnt);\r\n        address[] memory userAddress = new address[](userCnt);\r\n        for(uint i=0; i<userCnt; i++){\r\n            uint[] memory blocks= getIndexOf(user[i]);\r\n            for(uint j=0;j<blocks.length;j++)\r\n            {\r\n                if(keccak256(bytes(games[user[i]].gameName[blocks[j]])) == keccak256(bytes(_search))||keccak256(bytes(games[user[i]].serverName[blocks[j]])) == keccak256(bytes(_search))){\r\n                users[resultCnt]=games[user[i]].nickName;\r\n                userAddress[resultCnt]=user[i];\r\n                resultCnt++;\r\n                break;\r\n                }\r\n            }   \r\n        }\r\n\r\n        //     \r\n        string[] memory finalUsers = new string[](resultCnt);\r\n        address[] memory finalUserAddresses = new address[](resultCnt);\r\n        \r\n        //     \r\n        for (uint i = 0; i < resultCnt; i++) {\r\n            finalUsers[i] = users[i];\r\n            finalUserAddresses[i] = userAddress[i];\r\n        }\r\n        return (finalUsers, finalUserAddresses);\r\n   }\r\n\r\n}",
  "sourcePath": "C:\\ljs\\project\\id\\contracts\\IdProject.sol",
  "compiler": {
    "name": "solc",
    "version": "0.8.19+commit.7dd6d404.Emscripten.clang"
  },
  "schemaVersion": "3.4.16",
  "updatedAt": "2025-01-23T05:13:46.825Z",
  "networkType": "ethereum",
  "devdoc": {
    "kind": "dev",
    "methods": {},
    "version": 1
  },
  "userdoc": {
    "kind": "user",
    "methods": {},
    "version": 1
  }
}